:100000000C9446000C9465000C9465000C946500FB
:100010000C9465000C9465000C9465000C946500CC
:100020000C9465000C9465000C9465000C949F037F
:100030000C9465000C9465000C944E040C946500BF
:100040000C9465000C9465000C94B9000C94650048
:100050000C9465000C9465000C9465000C9465008C
:100060000C9465000C9465000C9465000C9465007C
:100070000C9465000C9465000C9465000C9465006C
:100080000C9465000C9465000C94650011241FBE4F
:10009000CFEFD0E1DEBFCDBF11E0A0E0B1E0E4EEF4
:1000A000F3E100E00BBF02C007900D92AA36B10742
:1000B000D9F715E0AAE6B1E001C01D92AF30B10753
:1000C000E1F70E94A3040C94F0090C940000089539
:1000D0001092900089B9549A539AE5E9F0E0808132
:1000E000866080831092570210925A02579A0895A0
:1000F000FC0104C05D9BFECF81918CB96150D1F7AA
:100100000895982F5D9BFECFE92FE295EF70F0E008
:10011000EE5FFE4F80818CB95D9BFECFE92FF0E052
:10012000EF70F070EE5FFE4F80818CB90895809182
:100130006A01882319F421EE31E002C02BE631E098
:10014000C901089580915A02882349F080916A017B
:10015000882319F0809158020895809159020895DA
:10016000579810925A0201C08CB15F99FDCF579AEF
:1001700008951F920F920FB60F920BB60F92112493
:100180002F938F939F93AF93BF93EF93FF939CB164
:10019000809157028437D8F59A3011F09D3051F58F
:1001A000E0910001F0910101DF019D931182282F60
:1001B0002D5F11961C9291E090935A0280916A01F2
:1001C000882359F010926A018BE691E09093010127
:1001D00080930001209359020AC090936A0181EE36
:1001E00091E09093010180930001209358021092B6
:1001F000570212C08F5F80935702E0910001F09187
:1002000001019193F0930101E093000105C081E0A9
:100210008093570280935A02FF91EF91BF91AF9163
:100220009F918F912F910F900BBE0F900FBE0F904B
:100230001F901895DF93CF930F92CDB7DEB78FB78E
:10024000898310925D0210925E0210925F021092FA
:100250006002109261021092620210926302109288
:100260006502109264021092670210926602898100
:100270008FBF0F90CF91DF91089510925C02109282
:100280005B020E941A01BD9ABC9AE1E6F0E080810F
:100290008160808380818260808387B3876087BB31
:1002A00088B3836088BB80E58DB981E08EB98C9876
:1002B0008FB780688FBF1FBC8EB584648EBD86B734
:1002C000806286BF87B7846087BF87B7806287BF39
:1002D000089580915D020895DF93CF930F92CDB77B
:1002E000DEB78FB7898310925D0289818FBF0F902F
:1002F000CF91DF91089580915E020895DF93CF93AF
:100300000F92CDB7DEB78FB7898310925E028981D5
:100310008FBF0F90CF91DF91089580915F02089574
:10032000DF93CF930F92CDB7DEB78FB7898310924B
:100330005F0289818FBF0F90CF91DF9108958091E7
:100340006602909167020895DF93CF930F92CDB725
:10035000DEB72FB729839093670280936602898165
:100360008FBF0F90CF91DF910895DF93CF930F92BE
:10037000CDB7DEB78FB789831092670210926602FD
:1003800089818FBF0F90CF91DF9108958091600296
:100390000895DF93CF930F92CDB7DEB78FB78983E0
:1003A0001092600289818FBF0F90CF91DF910895E5
:1003B00080916402909165020895DF93CF930F922C
:1003C000CDB7DEB72FB7298390936502809364027F
:1003D00089818FBF0F90CF91DF910895DF93CF93E5
:1003E0000F92CDB7DEB78FB7898310926502109256
:1003F000640289818FBF0F90CF91DF910895809122
:1004000061020895DF93CF930F92CDB7DEB78FB718
:1004100089831092610289818FBF0F90CF91DF9104
:100420000895809162020895DF93CF930F92CDB724
:10043000DEB78FB789831092620289818FBF0F90D8
:10044000CF91DF910895809163020895DF93CF9358
:100450000F92CDB7DEB78FB789831092630289817F
:100460008FBF0F90CF91DF910895DF93CF930F92BD
:10047000CDB7DEB780689FB79983C0988FB9779B57
:10048000FECF8FB18FB9779BFECF8FB1C09A998184
:100490009FBF0F90CF91DF910895DF93CF930F927D
:1004A000CDB7DEB7806C9FB79983C0988FB9779B23
:1004B000FECF8FB16FB9779BFECF8FB1C09A898184
:1004C0008FBF0F90CF91DF910895FF920F931F93ED
:1004D000062FF42E0E943502082310E002C0159565
:1004E0000795FA94E2F7802F1F910F91FF900895DE
:1004F000DF92EF92FF920F931F93D82EF62EE42EE9
:10050000022F0E9435026F2D6095682310E002C013
:10051000000F111FEA94E2F7F0226F298D2D0E943F
:100520004D021F910F91FF90EF90DF900895DF93A0
:10053000CF930F92CDB7DEB7FC018FB78983C098F8
:1005400080E28FB9779BFECF8FB18FB9779BFECFBB
:100550009FB1892F83508D3750F590839FB9779B3A
:10056000FECFDF01119620E030E08FB18FB98D937F
:100570002827022E2295207F2025032E322F229518
:100580002F700226269532272327220F220F220FB3
:100590002025779BFECF915041F78FB1E058FF4F58
:1005A0008193C09A232B41F481E0808306C0C09AD6
:1005B0001082E058FF4F1192108289818FBF0F90F7
:1005C000CF91DF910895DF93CF930F92CDB7DEB730
:1005D000FC016F778FB78983C09880E68FB9779BCE
:1005E000FECF8FB16FB9779BFECF8FB181918FB95D
:1005F0006150779BFECF8FB16623C1F7C09A898186
:100600008FBF0F90CF91DF910895DF93CF930F921B
:10061000CDB7DEB7982FFA018FB78983C0981FB87E
:10062000779BFECF8FB19FB9779BFECF8FB11FB85D
:10063000779BFECF8FB18083615011F03196F7CF59
:10064000C09A89818FBF0F90CF91DF910895DF937A
:10065000CF930F92CDB7DEB7982FFA018FB789836A
:10066000C09880E48FB9779BFECF8FB19FB9779BFD
:10067000FECF8FB181918FB9779BFECF8FB1615043
:10068000C9F7C09A89818FBF0F90CF91DF910895EC
:10069000DF93CF930F92CDB7DEB7982FDB0182E0C7
:1006A0008A95F1F78FB78983C09880E48FB9779BDB
:1006B000FECF9FB9779BFECF8C918FB9779BFECFF2
:1006C000942FFD0106C081818FB9779BFECF8FB13A
:1006D00081939150C1F74150FD01E40FF11D1FB806
:1006E000779BFECF8FB18083C09A89818FBF0F9097
:1006F000CF91DF910895DF93CF930F92CDB7DEB7FF
:1007000020915B0230915C0240E050E0A901332768
:1007100022278FB789838CB59DB569816FBFA0E013
:10072000B0E0282B392B4A2B5B2B569547953795F4
:100730002795B901CA010F90CF91DF9108951F92BB
:100740000F920FB60F920BB60F9211240F931F93B7
:100750002F933F934F935F936F937F938F939F93C9
:10076000AF93BF93EF93FF93809161008860809374
:10077000610080916200877F8093620080915B02BC
:1007800090915C02A0E0B0E09C01112700278CB59D
:100790009DB5A0E0B0E0082B192B2A2B3B2BC0986D
:1007A0008FE88FB93695279517950795779BFECFDC
:1007B0008FB18FB9779BFECF9FB1C09A92FF1BC0BC
:1007C000809160028F5F80936002E0916402F091FB
:1007D0006502309709F44DC0C09880E28FB9779BCD
:1007E000FECF8FB18FB9779BFECF4FB1C09AC901B1
:1007F000B80109953EC093FF0FC080915F028F5FE3
:1008000080935F02E0916602F0916702309789F170
:10081000C901B80109952DC096FF06C080915E02FE
:100820008F5F80935E0225C091FF06C080916202B7
:100830008F5F809362021DC090FF06C080916302AB
:100840008F5F8093630215C097FF0EC08EE00E94F9
:100850003502682F6F778EE00E944D0280915D0215
:100860008F5F80935D0205C0809161028F5F8093EE
:100870006102FF91EF91BF91AF919F918F917F9115
:100880006F915F914F913F912F911F910F910F9019
:100890000BBE0F900FBE0F901F9018951F920F92D6
:1008A0000FB60F9211248F939F9380915B029091CA
:1008B0005C02019690935C0280935B029F918F9102
:1008C0000F900FBE0F901F90189580910E058823F2
:1008D000C9F180910B05882321F481E080930D05F7
:1008E000089580910705909108050E949702E09174
:1008F0000705F0910805EF57FF4F8081E158F04060
:10090000882301F18091050590910605E817F90704
:1009100049F4809103059091040590930805809314
:10092000070506C0EE57FF4FF0930805E093070553
:1009300080910B05815080930B0580910C058F5F92
:1009400080930C0508952F923F924F925F926F9281
:100950007F928F929F92AF92BF92CF92DF92EF924F
:10096000FF920F931F93CF93DF9311E010930E0527
:1009700081E680936C0288E880936D028FEA809311
:100980006F028EEB809370028CED809371028CEA83
:10099000809372028DEA809373028AEB80937402D3
:1009A00085EB809375028DE08093760283E08093DF
:1009B00077028BE28093780281E3809379028093BF
:1009C0007A028FEF80937B0280937C0285ED809387
:1009D0007D028CE080937E022BEF32E030930405A1
:1009E0002093030581E894E0909306058093050524
:1009F000309308052093070590930A058093090515
:100A000084E080930B0510920C0510920D0583E392
:100A10000E9468000E94BF09803459F48BE00E9454
:100A20001908803431F481E060E00E94A807803426
:100A300019F010926B022AC08CE063E040E020E0E5
:100A40000E9478028DE068E043E020E00E94780296
:100A50008DE064E042E020E00E9478028DEA9AEBAB
:100A60000E94CE088FEA9EEB0E94DA0880E00E9486
:100A7000F8068AEE62EE0E944A0881E00E94FF06B4
:100A800085E694E00E94A40110936B0286E10E9427
:100A90002D07803429F083E191E067E20E9478001D
:100AA00078948091610082608093610080916200FF
:100AB0008D7F809362008CE10E94350280936A02F0
:100AC0008DE10E94350280936902ABEFCA2EA2E04D
:100AD000DA2EF1E8EF2EF4E0FF2EE4E02E2E74E1A2
:100AE000372E6DE0462E55EB552E43E0642E11E077
:100AF00032E0932E0FEF2CE0722E95ED892E88ECCC
:100B0000A82EB12C80910D058823E9F0F894D0929D
:100B10000405C0920305F0920605E0920505D09207
:100B20000805C0920705F0920A05E0920905209297
:100B30000B0510920C0510920D058AE391E066E119
:100B40000E947800789430926A0289E10E942D0711
:100B5000803409F05CC04092EB025092EC0260924B
:100B6000ED021093EE029092EF0280917F0280934B
:100B7000F00280916E028093F1029092F202109343
:100B8000F302809178028093F4028091790280933D
:100B9000F50280917A028093F6020093F7020093A7
:100BA000F8027092F9028092FA02CBEED2E08991BB
:100BB0000E94810082E0CB3FD807C9F7809169028B
:100BC0008F5F809369028F3F39F4109269028091A0
:100BD00068028F5F809368028091690280936E0241
:100BE0008091680280937F02809161008160809390
:100BF0006100809162008E7F8093620010920E05EA
:100C000086E16CE672E041E00E943A0605C080E5AC
:100C100091E06AE10E94780086E10E942D0780340D
:100C200029F083E191E067E20E94780010930E05BD
:100C30000E94B0008091620081608093620080E138
:100C400097E2F5013197F1F70197D9F75BCFC49897
:100C5000C59880E18A95F1F7C49A08958EE268E01C
:100C600043E00E946502089581E06FE140E00E9448
:100C7000650208950F931F93CF93DF93082FEB0125
:100C8000142F85508B3710F082E431C081E06FE182
:100C900040E00E946502893111F084E428C00E947E
:100CA0009001C59AC598CE01602F0E94E3020E9470
:100CB0008D018823E1F382E060EE45E00E94650249
:100CC0008823A1F0833011F08EE401C08DE411235C
:100CD00071F081E06FE140E00E9465028931C9F75F
:100CE00011500E949001C59AC598E1CF80E4DF9130
:100CF000CF911F910F9108951F93CF93DF93182FDA
:100D0000EB0187FF02C082E410C081E06FE140E0A8
:100D10000E946502893011F084E407C0C59AC59825
:100D2000CE01612F0E94E30280E4DF91CF911F91F9
:100D30000895B59902C080E40895C59880EE96E0C4
:100D40000197F1F781E06FE140E00E946502883091
:100D500091F383E4089583E067E040E00E94650238
:100D6000089581E160E245E00E946502882311F068
:100D70008BE408958AE4089581E160E144E00E94F3
:100D80006502089581E16FE040E00E9465020895E8
:100D9000CF93DF93EC0181E06FE140E00E946502B8
:100DA000863021F0813011F084E407C086E06FE1E5
:100DB00040E00E946502888380E4DF91CF9108952E
:100DC00089E06FE040E00E946502089588E060E6F7
:100DD00045E00E946502089585E06FE040E00E94D2
:100DE0006502089588E06FE140E00E946502089581
:100DF0008EE268E043E020E00E94780208958823B4
:100E000029F084E060E245E021E004C084E060E293
:100E100045E020E00E9478020895C59880E18A9517
:100E2000F1F782E06FE140E023E00E94780282E087
:100E30008A95F1F70895B59B02C080E408950E9459
:100E40000D0781E06FE140E00E946502883011F0FB
:100E500083E40895C59A80E408950F931F93082FA3
:100E6000883051F0863041F0893031F0863121F000
:100E7000893111F082E44BC0B59B02C084E447C0C5
:100E800081E06FE140E00E946502182F81508230BE
:100E900008F43AC01131C1F11231B1F10117B1F1C9
:100EA000083019F40E940D0726C0093139F41631B3
:100EB00091F482E06FE140E029E008C0063159F486
:100EC000193149F482E06FE140E026E00E947802A7
:100ED00082E08A95F1F782E06FE140E0202F0E94E6
:100EE0007802183029F488E691E00197F1F703C001
:100EF00082E08A95F1F781E06FE140E00E946502AF
:100F0000801721F083E403C085E401C080E41F91D1
:100F10000F91089581E06FE140E00E9465028850E2
:100F2000823010F084E4089588E160E847E021E031
:100F30000E94780282E48A95F1F788E160E847E050
:100F40000E946502882311F480E4089583E40895E3
:100F50000F931F93082F162F663010F082E41BC0EA
:100F600083E067E040E00E946502811799F000236A
:100F700029F483E068E043E021E004C083E068E016
:100F800043E020E00E94780283E067E040E0212F08
:100F90000E94780280E41F910F9108951F93162FED
:100FA000603110F082E418C0B59B02C084E414C024
:100FB000882329F081E160E144E021E004C081E17F
:100FC00060E144E020E00E94780281E16FE040E0CF
:100FD000212F0E94780280E41F9108951F93282FEB
:100FE000162F833098F4603188F4B59B02C084E4F6
:100FF0000EC088E060E645E00E94780289E06FE07C
:1010000040E0212F0E94780280E401C082E41F9119
:101010000895282F803110F082E40895B59B02C016
:1010200084E4089585E06FE040E00E94780280E467
:1010300008951F93182F8B50803110F082E428C040
:10104000B59B02C084E424C088E06FE140E00E94C8
:1010500065028117E1F088E06FE140E0212F0E94F6
:10106000780281E06FE140E00E946502863011F075
:10107000893021F48CE291E00197F1F788E06FE18B
:1010800040E00E946502811711F083E401C080E412
:101090001F9108950F931F93082F162FB59B02C021
:1010A00084E42AC08CE260EF44E020E00E947802F1
:1010B000212F30E02873307083E0359527958A958D
:1010C000E1F78CE26EE041E00E947802212F229548
:1010D0002695269523708FE26FE040E00E9478020B
:1010E0008DE2602F0E944D0217708EE267E040E0B3
:1010F000212F0E94780280E41F910F910895AF92F2
:10110000BF92CF92DF92EF92FF920F931F938C01C9
:101110007C010894E11CF11C8BE2F80160810E94C3
:101120004D0267010894C11CD11C8AE2F80161815B
:101130000E944D0256010894A11CB11C89E2F701DE
:1011400061810E944D0275010894E11CF11C88E246
:10115000F60161810E944D0287010F5F1F4F87E2F8
:10116000F50161810E944D0286E2F70161810E94D2
:101170004D0285E2F80161810E944D0284E20F5F19
:101180001F4FF80161810E944D021F910F91FF9046
:10119000EF90DF90CF90BF90AF9008951F93682F8E
:1011A000192F80E20E944D0281E2612F0E944D02C0
:1011B0001F9108951F93682F192F82E20E944D02FC
:1011C00083E2612F0E944D021F910895EF92FF92DA
:1011D0000F931F937C018BE20E943502F7018193EC
:1011E0008F018AE20E943502F70181837801089419
:1011F000E11CF11C89E20E943502F801818387011C
:101200000F5F1F4F88E20E943502F701818378014A
:101210000894E11CF11C87E20E943502F8018183E9
:1012200087010F5F1F4F86E20E943502F70181831D
:1012300085E20E943502F801818384E20E94350232
:101240000F5F1F4FF80181831F910F91FF90EF9067
:1012500008951F9381E20E943502182F81E20E94B7
:101260003502512F40E0282F30E0242B352BC901C7
:101270001F9108951F9383E20E943502182F82E286
:101280000E943502512F40E0282F30E0242B352BCF
:10129000C9011F91089581E06FE140E00E9465025D
:1012A000893011F084E4089586E00E942D0780348F
:1012B000A9F488E060E847E021E00E94780288E134
:1012C00091E00197F1F781E00E94350287FF06C0A7
:1012D00086FD02C088E4089587E4089583E40895B4
:1012E000CF93DF93EC0181E06FE140E00E94650263
:1012F000863021F0813011F084E40DC087E060E099
:101300000E944D0288E191E00197F1F787E00E9489
:101310003502888380E4DF91CF91089581E06FE109
:1013200040E00E946502893011F084E408958BE169
:1013300060E847E021E00E9478028AE160E847E047
:1013400021E00E9478020E9426028CE291E001973F
:10135000F1F70E942302882381F08BE160E847E0E7
:101360000E946502882349F48AE160E847E00E9410
:101370006502882311F480E4089583E408950F93AF
:101380001F930CEF13E0C8010197F1F70E943D0194
:101390000E94270682E06FE140E023E00E9478028D
:1013A000C8010197F1F781E06FE140E00E9465021A
:1013B000883011F083E411C08DE10E943502823043
:1013C00059F48EE10E9435028F3131F48EE06FEFD7
:1013D0000E944D0280E401C081E41F910F910895A5
:0413E000F894FFCFAF
:1013E4006B01303132333435363738394142434476
:1013F4004546004120666174616C206572726F72AB
:101404002E2053797374656D206D75737420626535
:101414002072657365742E0D0A0052582042756659
:10142400666572204F766572666C6F77210D0A00CF
:101434005374617465207472616E736974696F6E3C
:0A144400206661696C65640D0A0002
:00000001FF
