:100000000C9466000C9485000C9485000C9485007B
:100010000C9485000C9485000C9485000C9485004C
:100020000C9485000C9485000C9485000C9485003C
:100030000C9485000C9485000C9485000C9485002C
:100040000C9491090C9485000C9485000C94850007
:100050000C94540A0C9485000C9485000C94850033
:100060000C9485000C94F6000C9485000C9485008B
:100070000C9485000C9485000C9485000C948500EC
:100080000C9485000C9485000C9485000C948500DC
:100090000C9485000C9485000C9485000C948500CC
:1000A0000C9485000C9485000C9485000C948500BC
:1000B0000C9485000C9485000C9485000C948500AC
:1000C0000C9485000C9485000C94850011241FBEAF
:1000D000CFEFD1E2DEBFCDBF12E0A0E0B2E0EAEDAB
:1000E000F4E100E00BBF02C007900D92A23CB10703
:1000F000D9F715E0A2ECB2E001C01D92AD3DB10709
:10010000E1F70E9439010C946B0A0C9400001092E4
:10011000C5008093C400A1ECB0E08C9180618C9309
:100120008C9188608C93E2ECF0E080818660808323
:1001300010923803109239038C9180688C93089543
:10014000FC0107C08091C00085FFFCCF81918093A6
:10015000C6006150B9F70895982F8091C00085FFBF
:10016000FCCF80E38093C6008091C00085FFFCCF68
:1001700088E78093C6008091C00085FFFCCFE92FFF
:10018000E295EF70F0E0E050FE4F80818093C60072
:100190008091C00085FFFCCFE92FF0E0EF70F07098
:1001A000E050FE4F80818093C600089582EC92E07B
:1001B000089580913903882311F0809138030895C0
:1001C0008091C1008F778093C10010923803109204
:1001D000390302C08091C6008091C00087FDFACF2C
:1001E0008091C10080688093C10008951F920F9292
:1001F0000FB60F920BB60F9211248F939F93AF936C
:10020000BF93EF93FF939091C6008091380384379A
:10021000F0F4A82FB0E08F5F9A3099F4AE53BD4F41
:100220009C93E82FF0E0EE53FD4F10828F5FE82F94
:10023000F0E0EE53FD4F10828F5F8093380381E032
:1002400009C0AE53BD4F9C938093380305C081E035
:100250008093380380933903FF91EF91BF91AF9161
:100260009F918F910F900BBE0F900FBE0F901F901C
:100270001895EF92FF920F931F93CF93DF9311E0A6
:100280001093CF0581E680933D0388E880933E0379
:100290008FEA809340038EEB809341038CED809333
:1002A00042038CEA809343038DEA809344038AEBF4
:1002B000809345032CEB33E03093C5052093C405B0
:1002C00082E495E09093C7058093C6053093C905F5
:1002D0002093C8059093CB058093CA0584E0809352
:1002E000CC051092CD051092CE0583E00E948700C8
:1002F0000E947F06803459F48BE00E94D904803438
:1003000031F481E060E00E946804803419F01092BA
:100310003C032AC08CE063E040E023E00E943A08FE
:100320008DE068E043E020E00E943A088DE064E060
:1003300042E020E00E943A088DEA9AEB0E948E0586
:100340008FEA9EEB0E949A0580E00E94B8038AEE35
:1003500062EE0E940A0581E00E94BF0389EA92E0F2
:100360000E94580710933C0386E10E94ED038034FD
:1003700029F081E192E067E20E94A00078945F9802
:1003800088E392E065E10E94A0008CE10E94F10701
:1003900080933B038DE10E94F10780933A030CEBBD
:1003A00013E0C2E4D5E084E0F82EEE24E39440911B
:1003B000CD05442309F44FC02E982091CA053091F1
:1003C000CB058091C6059091C7052817390749F4D8
:1003D0008091C4059091C5059093CB058093CA0583
:1003E00006C02E573F4F3093CB052093CA05F89493
:1003F0008091CC058F5F8093CC0541504093CD0513
:1004000078948DE492E06AE00E94A000E091CA0531
:10041000F091CB0580810E94AC00E091CA05F0917B
:10042000CB0560816B50CF010A960E94A00087E542
:1004300092E066E00E94A000E091CA05F091CB0531
:10044000E058FF4F80810E94AC0088E392E065E1B4
:100450000E94A0002E9A8091CE058823E9F0F8949E
:100460001093C5050093C405D093C705C093C60576
:100470001093C9050093C805D093CB05C093CA0556
:10048000F092CC051092CD051092CE058DE592E04C
:1004900066E10E94A00078940E94D90080933B03FB
:1004A000813041F483E792E06BE10E94A0000E945A
:1004B000E0007DCF8350843708F079CF89E10E9436
:1004C000ED03803461F50E94D600DC0180913A038F
:1004D00080933F038F5F80933A032E9830913B03C4
:1004E000232F99E0E92FF0E0E35CFC4F8D918083AE
:1004F0009F5F2150B9F710923B031092CF05832FD5
:10050000875F6DE373E041E00E94FA02803419F4E2
:100510008EE892E002C08BE992E06DE003C088EAC9
:1005200092E06AE10E94A00086E10E94ED0380341F
:1005300029F081E192E067E20E94A000E092CF05FD
:100540000E94E00088E392E065E10E94A0002E9AFC
:100550002ECF8091CF058823C9F18091CC058823C7
:1005600021F481E08093CE0508958091C805909193
:10057000C9050E946F08E091C805F091C905EF57C1
:10058000FF4F8081E158F040882301F18091C6053A
:100590009091C705E817F90749F48091C405909137
:1005A000C5059093C9058093C80506C0EE57FF4F57
:1005B000F093C905E093C8058091CC0581508093E4
:1005C000CC058091CD058F5F8093CD0508952D9842
:1005D0002C988EE08A95F1F72D9A08958EE268E0C6
:1005E00043E00E942708089581E06FE140E00E9407
:1005F000270808950F931F93CF93DF93082FEB01E4
:10060000142F85508B3710F082E431C081E06FE108
:1006100040E00E942708893111F084E428C00E943C
:1006200043072C9A2C98CE01602F0E94C0080E948C
:1006300040078823E1F382E060EE45E00E9427084E
:100640008823A1F0833011F08EE401C08DE41123E2
:1006500071F081E06FE140E00E9427088931C9F71D
:1006600011500E9443072C9A2C98E1CF80E4DF912F
:10067000CF911F910F9108951F93CF93DF93182F60
:10068000EB0187FF02C082E410C081E06FE140E02F
:100690000E942708893011F084E407C02C9A2C9816
:1006A000CE01612F0E94C00880E4DF91CF911F919D
:1006B00008951C9902C080E408952C9886E596E080
:1006C0000197F1F781E06FE140E00E942708883050
:1006D00091F383E4089583E067E040E00E942708F7
:1006E000089581E160E245E00E942708882311F027
:1006F0008BE408958AE4089581E160E144E00E947A
:100700002708089581E16FE040E00E9427080895DE
:10071000CF93DF93EC0181E06FE140E00E94270876
:10072000863021F0813011F084E407C086E06FE16B
:1007300040E00E942708888380E4DF91CF910895EC
:1007400089E06FE040E00E942708089588E060E6B5
:1007500045E00E942708089585E06FE040E00E9490
:100760002708089588E06FE140E00E942708089577
:100770008EE268E043E020E00E943A080895882372
:1007800029F084E060E245E021E004C084E060E21A
:1007900045E020E00E943A0808952C988EE08A9562
:1007A000F1F782E06FE140E023E00E943A0882E046
:1007B0008A95F1F708951C9B02C080E408950E9479
:1007C000CD0381E06FE140E00E942708883011F0FE
:1007D00083E408952C9A80E408950F931F93082FC3
:1007E000883051F0863041F0893031F0863121F087
:1007F000893111F082E44BC01C9B02C084E447C0E5
:1008000081E06FE140E00E942708182F815082307C
:1008100008F43AC01131C1F11231B1F10117B1F14F
:10082000083019F40E94CD0326C0093139F416317D
:1008300091F482E06FE140E029E008C0063159F40C
:10084000193149F482E06FE140E026E00E943A0865
:1008500082E08A95F1F782E06FE140E0202F0E946C
:100860003A08183029F48BE491E00197F1F703C0BE
:1008700082E08A95F1F781E06FE140E00E9427086D
:10088000801721F083E403C085E401C080E41F9158
:100890000F91089581E06FE140E00E9427088850A1
:1008A000823010F084E4089588E160E847E021E0B8
:1008B0000E943A088DE38A95F1F788E160E847E005
:1008C0000E942708882311F480E4089583E40895A2
:1008D0000F931F93082F162F663010F082E41BC071
:1008E00083E067E040E00E942708811799F0002329
:1008F00029F483E068E043E021E004C083E068E09D
:1009000043E020E00E943A0883E067E040E0212FC6
:100910000E943A0880E41F910F9108951F93162FAB
:10092000603110F082E418C01C9B02C084E414C043
:10093000882329F081E160E144E021E004C081E105
:1009400060E144E020E00E943A0881E16FE040E08D
:10095000212F0E943A0880E41F9108951F93282FA9
:10096000162F833098F4603188F41C9B02C084E415
:100970000EC088E060E645E00E943A0889E06FE03A
:1009800040E0212F0E943A0880E401C082E41F91D8
:100990000895282F803110F082E408951C9B02C036
:1009A00084E4089585E06FE040E00E943A0880E426
:1009B00008951F93182F8B50803110F082E428C0C7
:1009C0001C9B02C084E424C088E06FE140E00E94E8
:1009D00027088117E1F088E06FE140E0212F0E94B5
:1009E0003A0881E06FE140E00E942708863011F06C
:1009F000893021F484E191E00197F1F788E06FE11B
:100A000040E00E942708811711F083E401C080E4D0
:100A10001F9108950F931F93082F162F1C9B02C040
:100A200084E42AC08CE260EF44E020E00E943A08AF
:100A3000212F30E02873307083E0359527958A9513
:100A4000E1F78CE26EE041E00E943A08212F229506
:100A50002695269523708FE26FE040E00E943A08C9
:100A60008DE2602F0E940C0817708EE267E040E074
:100A7000212F0E943A0880E41F910F910895AF92B0
:100A8000BF92CF92DF92EF92FF920F931F938C0150
:100A90007C010894E11CF11C8BE2F80160810E944A
:100AA0000C0867010894C11CD11C8AE2F80161811D
:100AB0000E940C0856010894A11CB11C89E2F701A0
:100AC00061810E940C0875010894E11CF11C88E208
:100AD000F60161810E940C0887010F5F1F4F87E2BA
:100AE000F50161810E940C0886E2F70161810E9494
:100AF0000C0885E2F80161810E940C0884E20F5F16
:100B00001F4FF80161810E940C081F910F91FF9007
:100B1000EF90DF90CF90BF90AF9008951F93682F14
:100B2000192F80E20E940C0881E2612F0E940C08BC
:100B30001F9108951F93682F192F82E20E940C08BD
:100B400083E2612F0E940C081F910895EF92FF929B
:100B50000F931F937C018BE20E94F107F7018193B1
:100B60008F018AE20E94F107F701818378010894DE
:100B7000E11CF11C89E20E94F107F80181838701E1
:100B80000F5F1F4F88E20E94F107F7018183780110
:100B90000894E11CF11C87E20E94F107F8018183AF
:100BA00087010F5F1F4F86E20E94F107F7018183E3
:100BB00085E20E94F107F801818384E20E94F10737
:100BC0000F5F1F4FF80181831F910F91FF90EF90EE
:100BD00008951F9381E20E94F107182F81E20E947D
:100BE000F107512F40E0282F30E0242B352BC9018D
:100BF0001F9108951F9383E20E94F107182F82E24C
:100C00000E94F107512F40E0282F30E0242B352B94
:100C1000C9011F91089581E06FE140E00E9427081B
:100C2000893011F084E4089586E00E94ED03803459
:100C3000A9F488E060E847E021E00E943A0882E0F9
:100C400091E00197F1F781E00E94F10787FF06C06C
:100C500086FD02C088E4089587E4089583E408953A
:100C6000CF93DF93EC0181E06FE140E00E94270821
:100C7000863021F0813011F084E40DC087E060E01F
:100C80000E940C0882E091E00197F1F787E00E9452
:100C9000F107888380E4DF91CF91089581E06FE1CF
:100CA00040E00E942708893011F084E408958BE128
:100CB00060E847E021E00E943A088AE160E847E006
:100CC00021E00E943A080E94E10784E191E0019747
:100CD000F1F70E94DE07882381F08BE160E847E0AE
:100CE0000E942708882349F48AE160E847E00E94CF
:100CF0002708882311F480E4089583E408950F936E
:100D00001F930CEA13E0C8010197F1F70E94B406A3
:100D10002D982C988EE08A95F1F72D9A82E06FE15C
:100D200040E023E00E943A08C8010197F1F781E012
:100D30006FE140E00E942708883011F083E411C081
:100D40008DE10E94F107823059F48EE10E94F10793
:100D50008F3131F48EE06FEF0E940C0880E401C007
:100D600081E41F910F910895DF93CF930F92CDB738
:100D7000DEB71092D1051092D0058FB78983F89411
:100D80001092D2051092D3051092D4051092D50579
:100D90001092D6051092D7051092D8051092DA0558
:100DA0001092D9051092DC051092DB0589818FBF66
:100DB000249A259A269A579A84B1876084B985B176
:100DC000836085B980E58CBD81E08DBD83E480932F
:100DD0008100B59AEFE6F0E08081816080838081B8
:100DE000806280830F90CF91DF910895DF93CF933E
:100DF0000F92CDB7DEB78FB78983F8941092D205E2
:100E00001092D3051092D4051092D5051092D605F4
:100E10001092D7051092D8051092DA051092D905D4
:100E20001092DC051092DB0589818FBF0F90CF9166
:100E3000DF9108958091D2050895DF93CF930F92AB
:100E4000CDB7DEB78FB78983F8941092D205898128
:100E50008FBF0F90CF91DF9108958091D3050895B2
:100E6000DF93CF930F92CDB7DEB78FB78983F89416
:100E70001092D30589818FBF0F90CF91DF91089594
:100E80008091D4050895DF93CF930F92CDB7DEB74D
:100E90008FB78983F8941092D40589818FBF0F9002
:100EA000CF91DF9108958091DB059091DC05089545
:100EB000DF93CF930F92CDB7DEB72FB72983F89486
:100EC0009093DC058093DB0589818FBF0F90CF91D4
:100ED000DF910895DF93CF930F92CDB7DEB78FB731
:100EE0008983F8941092DC051092DB0589818FBF0D
:100EF0000F90CF91DF9108958091D5050895DF93EC
:100F0000CF930F92CDB7DEB78FB78983F894109245
:100F1000D50589818FBF0F90CF91DF910895809182
:100F2000D9059091DA050895DF93CF930F92CDB74D
:100F3000DEB72FB72983F8949093DA058093D9050B
:100F400089818FBF0F90CF91DF910895DF93CF9369
:100F50000F92CDB7DEB78FB78983F8941092DA0578
:100F60001092D90589818FBF0F90CF91DF9108959D
:100F70008091D6050895DF93CF930F92CDB7DEB75A
:100F80008FB78983F8941092D60589818FBF0F900F
:100F9000CF91DF9108958091D7050895DF93CF9386
:100FA0000F92CDB7DEB78FB78983F8941092D7052B
:100FB00089818FBF0F90CF91DF9108958091D805DF
:100FC0000895DF93CF930F92CDB7DEB78FB78983A4
:100FD000F8941092D80589818FBF0F90CF91DF913F
:100FE0000895DF93CF930F92CDB7DEB780689FB798
:100FF0009983F89428988EBD0DB407FEFDCF8EB569
:101000008EBD0DB407FEFDCF8EB5289A99819FBF86
:101010000F90CF91DF910895DF93CF930F92CDB7CB
:10102000DEB7806C9FB79983F89428988EBD0DB475
:1010300007FEFDCF8EB56EBD0DB407FEFDCF8EB59C
:10104000289A89818FBF0F90CF91DF910895FF92E9
:101050000F931F93062FF42E0E94F107082310E030
:1010600002C015950795FA94E2F7802F1F910F9112
:10107000FF900895EF92FF920F931F93DF93CF930A
:101080000F92CDB7DEB7182F062FE42EF22E0E9456
:10109000F107282F106C8FB78983F89428981EBD0C
:1010A0000DB407FEFDCF8EB58F2D90E002C0880FE6
:1010B000991FEA94E2F7802300950223802B8EBDCE
:1010C0000DB407FEFDCF8EB5289A89818FBF0F9092
:1010D000CF91DF911F910F91FF90EF900895DF93D3
:1010E000CF930F92CDB7DEB7FC018FB78983F89409
:1010F000289880E28EBD0DB407FEFDCF8EB58EBD63
:101100000DB407FEFDCF9EB5892F83508D3760F556
:1011100090839EBD0DB407FEFDCFDF01119620E048
:1011200030E08EB58EBD8D932827022E2295207F2C
:101130002025032E322F22952F7002262695322746
:101140002327220F220F220F20250DB407FEFDCFEB
:10115000915039F78EB5E058FF4F8193289A232B91
:1011600041F481E0808306C0289A1082E058FF4F46
:101170001192108289818FBF0F90CF91DF910895D6
:10118000DF93CF930F92CDB7DEB7FC016F778FB7A8
:101190008983F894289880E68EBD0DB407FEFDCFB4
:1011A0008EB56EBD0DB407FEFDCF8EB581918EBD9F
:1011B00061500DB407FEFDCF8EB56623B9F7289AAE
:1011C00089818FBF0F90CF91DF910895DF93CF93E7
:1011D0000F92CDB7DEB7982FFA018FB78983F894B5
:1011E00028981EBC0DB407FEFDCF8EB59EBD0DB474
:1011F00007FEFDCF8EB51EBC0DB407FEFDCF8EB52C
:101200008083615011F03196F6CF289A89818FBF83
:101210000F90CF91DF910895DF93CF930F92CDB7C9
:10122000DEB7982FFA018FB78983F894289880E465
:101230008EBD0DB407FEFDCF8EB59EBD0DB407FE6D
:10124000FDCF8EB581918EBD0DB407FEFDCF8EB55D
:101250006150C1F7289A89818FBF0F90CF91DF919C
:101260000895DF93CF930F92CDB7DEB7982FDB01B0
:1012700082E08A95F1F78FB78983F894289880E403
:101280008EBD0DB407FEFDCF9EBD0DB407FEFDCF94
:101290008C918EBD0DB407FEFDCF942FFD0107C0CC
:1012A00081818EBD0DB407FEFDCF8EB58193915027
:1012B000B9F74150FD01E40FF11D1EBC0DB407FE4E
:1012C000FDCF8EB58083289A89818FBF0F90CF91F3
:1012D000DF910895DF93CF930F92CDB7DEB72091C2
:1012E000D0053091D10540E050E0A90133272227F5
:1012F0008FB78983F89480918400909185006981EB
:101300006FBFA0E0B0E0282B392B4A2B5B2B569502
:10131000479537952795B901CA010F90CF91DF9175
:1013200008951F920F920FB60F920BB60F921124D1
:101330000F931F932F933F934F935F936F937F93DD
:101340008F939F93AF93BF93EF93FF93DF93CF93CD
:101350000F92CDB7DEB78091D0059091D105A0E076
:10136000B0E09C01112700278091840090918500B6
:10137000A0E0B0E0082B192B2A2B3B2B28988FE8F4
:101380008EBD36952795179507950DB407FEFDCFB1
:101390008EB58EBD0DB407FEFDCF9EB5289A92FF87
:1013A0001DC08091D5058F5F8093D505E091D9054B
:1013B000F091DA05309709F45FC0289880E28EBD7D
:1013C0000DB407FEFDCF8EB58EBD0DB407FEFDCF6B
:1013D0004EB5289AC901B80109954EC093FF10C0B7
:1013E0008091D4058F5F8093D405E091DB05F09167
:1013F000DC05309709F440C0C901B80109953CC02B
:1014000096FF06C08091D3058F5F8093D30534C0CB
:1014100091FF06C08091D7058F5F8093D7052CC0C0
:1014200090FF06C08091D8058F5F8093D80524C0B7
:1014300097FF1DC08EE00E94F107982F8FB7898318
:10144000F89428988EEC8EBD0DB407FEFDCF8EB5B6
:101450009F779EBD0DB407FEFDCF8EB5289A89817A
:101460008FBF8091D2058F5F8093D20505C0809198
:10147000D6058F5F8093D6050F90CF91DF91FF91B6
:10148000EF91BF91AF919F918F917F916F915F91FC
:101490004F913F912F911F910F910F900BBE0F9085
:1014A0000FBE0F901F9018951F920F920FB60F92BC
:1014B00011248F939F938091D0059091D10501962F
:1014C0009093D1058093D0059F918F910F900FBE7F
:0A14D0000F901F901895F894FFCFBD
:1014DA003031323334353637383941424344454660
:1014EA00004120666174616C206572726F722E20F1
:1014FA0053797374656D206D7573742062652072FB
:10150A00657365742E0D0A000D3C2D2D2D547970CE
:10151A0065204D6573736167653A0D0A000D2D2DBF
:10152A002D3E52783A0D004C51493A20005258202B
:10153A00427566666572204F766572666C6F7721B2
:10154A000D0A005479706564204D6573736167658F
:10155A0020746F6F206C6F6E6721210D0A003C2D7D
:10156A002D2D5458204F4B2E0D0A005458204661F9
:10157A00696C6564210D0A00537461746520747284
:10158A00616E736974696F6E206661696C65640D5A
:02159A000A0045
:00000001FF
