:100000000C9466000C9485000C9485000C9485007B
:100010000C9485000C9485000C9485000C9485004C
:100020000C9485000C9485000C9485000C9485003C
:100030000C9485000C9485000C9485000C9485002C
:100040000C94480A0C9485000C9485000C9485004F
:100050000C94F30A0C9485000C9485000C94850094
:100060000C9485000C94D0010C9485000C948500B0
:100070000C9485000C9485000C9485000C948500EC
:100080000C9485000C9485000C9485000C948500DC
:100090000C9485000C9485000C9485000C948500CC
:1000A0000C9485000C9485000C9485000C948500BC
:1000B0000C9485000C9485000C9485000C948500AC
:1000C0000C9485000C9485000C94850011241FBEAF
:1000D000CFEFD1E2DEBFCDBF12E0A0E0B2E0EEE7AD
:1000E000F6E100E00BBF02C007900D92AA39B107FC
:1000F000D9F716E0AAE9B2E001C01D92AF33B1070B
:10010000E1F70E9470020C943D0B0C9400001092D9
:10011000C5008093C400A1ECB0E08C9180618C9309
:100120008C9188608C93E2ECF0E080818660808323
:100130001092870310928A038C9180688C930895A3
:10014000FC0107C08091C00085FFFCCF81918093A6
:10015000C6006150B9F70895982F8091C00085FFBF
:10016000FCCF8091C00085FFFCCF8091C00085FF4F
:10017000FCCFE92FE295EF70F0E0E35FFD4F808167
:100180008093C6008091C00085FFFCCFE92FF0E08E
:10019000EF70F070E35FFD4F80818093C60008959B
:1001A000282F8091C00085FFFCCF80E38093C6009C
:1001B0008091C00085FFFCCF822F64E60E940A0B6D
:1001C0006AE00E940A0BE92FF0E0EE5FFD4F8081AC
:1001D0008093C6008091C00085FFFCCF822F6AE02B
:1001E0000E940A0B0E940A0BE92FF0E0EE5FFD4F20
:1001F00080818093C6008091C00085FFFCCF822F54
:100200006AE00E940A0BE92FF0E0EE5FFD4F80816B
:100210008093C600089560E177E20E94160B9C016E
:100220008091C00085FFFCCFC90168EE73E00E9499
:10023000160BFB01EE5FFD4F80818093C60080911D
:10024000C00085FFFCCFC90164E670E00E94160B78
:10025000CB016AE070E00E94160BFC01EE5FFD4FDF
:1002600080818093C6008091C00085FFFCCFC901CA
:100270006AE070E00E94160BCB016AE070E00E9419
:10028000160BFC01EE5FFD4F80818093C6008091CC
:10029000C00085FFFCCFC9016AE070E00E94160B28
:1002A000FC01EE5FFD4F80818093C600089560E100
:1002B00077E20E94160B9B018091C00085FFFCCF66
:1002C000C90168EE73E00E94160BFB01EE5FFD4F63
:1002D00080818093C6008091C00085FFFCCFC9015A
:1002E00064E670E00E94160BCB016AE070E00E94A9
:1002F000160BFC01EE5FFD4F80818093C60080915C
:10030000C00085FFFCCFC9016AE070E00E94160BB7
:10031000CB016AE070E00E94160BFC01EE5FFD4F1E
:1003200080818093C6008091C00085FFFCCFC90109
:100330006AE070E00E94160BFC01EE5FFD4F8081C9
:100340008093C600089580919A02882319F421E1D0
:1003500033E002C02BE932E0C901089580918A039D
:10036000882349F080919A02882319F080918803AC
:1003700008958091890308958091C1008F778093BB
:10038000C10010928A0302C08091C6008091C00013
:1003900087FDFACF8091C10080688093C1000895E5
:1003A0001F920F920FB60F920BB60F9211242F933C
:1003B0008F939F93AF93BF93EF93FF939091C6005A
:1003C000809187038437D8F59A3011F09D3051F52C
:1003D000E0910002F0910102DF019D931182282F2C
:1003E0002D5F11961C9291E090938A0380919A025E
:1003F000882359F010929A028BE992E090930102BF
:1004000080930002209389030AC090939A0281E1AD
:1004100093E090930102809300022093880310924E
:10042000870312C08F5F80938703E0910002F091F1
:1004300001029193F0930102E093000205C081E074
:100440008093870380938A03FF91EF91BF91AF91CF
:100450009F918F912F910F900BBE0F900FBE0F9019
:100460001F901895809131068823C9F180912E063E
:10047000882321F481E080933006089580912A0634
:1004800090912B060E942C09E0912A06F0912B06F0
:10049000EF57FF4F8081E158F040882301F18091B0
:1004A000280690912906E817F90749F48091260655
:1004B0009091270690932B0680932A0606C0EE574C
:1004C000FF4FF0932B06E0932A0680912E06815071
:1004D00080932E0680912F068F5F80932F060895BC
:1004E0002F923F924F925F926F927F928F929F9244
:1004F000AF92BF92CF92DF92EF92FF920F931F9332
:10050000CF93DF9311E01093310681E680938F0340
:1005100088E8809390038FEA809392038EEB809318
:1005200093038CED809394038CEA809395038DEA7A
:10053000809396038AEB8093970385EB80939803CF
:100540008DE08093990383E080939A038BE28093FC
:100550009B0381E380939C0380939D038FEF8093A3
:100560009E0380939F0385ED8093A0038CE080938E
:10057000A1032EE134E0309327062093260684EA77
:1005800095E0909329068093280630932B062093BC
:100590002A0690932D0680932C0684E080932E06E5
:1005A00010922F06109230068FE20E9487000E9460
:1005B0008507803459F48BE00E94DF05803431F4E4
:1005C00081E060E00E946E05803419F010928E0385
:1005D0002AC08CE063E040E020E00E940D098DE03D
:1005E00068E043E020E00E940D098DE064E042E015
:1005F00020E00E940D098DEA9AEB0E9494068FEA92
:100600009EEB0E94A00680E00E94BE048AEE62EE8D
:100610000E94100681E00E94C50482E392E00E94DD
:10062000350810938E0386E10E94F304803429F08C
:100630008EE192E067E20E94A00078945F9885E4E2
:1006400092E065E10E94A0008CE10E94C6088093C0
:100650008D038DE10E94C60880938C03AEE1CA2E03
:10066000A4E0DA2EF4EAEF2EF5E0FF2EE4E02E2EE1
:1006700074E1372E6DE0462E55EB552E43E0642E87
:1006800011E032E0932E0FEF2CE0722E95ED892EC3
:1006900088EBA82EB12C809130068823E9F0F894DD
:1006A000D0922706C0922606F0922906E0922806EC
:1006B000D0922B06C0922A06F0922D06E0922C06CC
:1006C00020922E0610922F06109230068AE592E0B4
:1006D00066E10E94A000789430928D0389E10E9427
:1006E000F304803409F05DC040920E0450920F0470
:1006F0006092100410931104909212048091A2034E
:1007000080931304809191038093140490921504B4
:100710001093160480919B038093170480919C038F
:100720008093180480919D038093190400931A0408
:1007300000931B0470921C0480921D04CEE0D4E050
:1007400089910E94AC0087E992E062E00E94A000DB
:1007500084E0CE31D807A1F780918C038F5F80931E
:100760008C038F3F39F410928C0380918B038F5F41
:1007700080938B0380918C038093910380918B03F2
:100780008093A2032E981092310686E16FE873E001
:1007900041E00E940004803449F080E792E06DE07F
:1007A00003C08DE792E06AE10E94A00086E10E940A
:1007B000F304803429F08EE192E067E20E94A00009
:1007C000109331060E94BC012E9A88EE93E0F50149
:1007D0003197F1F70197D9F75ECF2D982C988EE0DD
:1007E0008A95F1F72D9A08958EE268E043E00E9421
:1007F000FA08089581E06FE140E00E94FA08089548
:100800000F931F93CF93DF93082FEB01142F855085
:100810008B3710F082E431C081E06FE140E00E944C
:10082000FA08893111F084E428C00E9421082C9A2A
:100830002C98CE01602F0E947C090E941E088823FC
:10084000E1F382E060EE45E00E94FA088823A1F01F
:10085000833011F08EE401C08DE4112371F081E04A
:100860006FE140E00E94FA088931C9F711500E94F7
:1008700021082C9A2C98E1CF80E4DF91CF911F9131
:100880000F9108951F93CF93DF93182FEB0187FFEC
:1008900002C082E410C081E06FE140E00E94FA08EB
:1008A000893011F084E407C02C9A2C98CE01612F76
:1008B0000E947C0980E4DF91CF911F9108951C99DB
:1008C00002C080E408952C9886E596E00197F1F740
:1008D00081E06FE140E00E94FA08883091F383E400
:1008E000089583E067E040E00E94FA08089581E1FE
:1008F00060E245E00E94FA08882311F08BE4089535
:100900008AE4089581E160E144E00E94FA080895D4
:1009100081E16FE040E00E94FA080895CF93DF93F1
:10092000EC0181E06FE140E00E94FA08863021F09E
:10093000813011F084E407C086E06FE140E00E945E
:10094000FA08888380E4DF91CF91089589E06FE011
:1009500040E00E94FA08089588E060E645E00E94C1
:10096000FA08089585E06FE040E00E94FA080895D3
:1009700088E06FE140E00E94FA0808958EE268E0A6
:1009800043E020E00E940D090895882329F084E0C7
:1009900060E245E021E004C084E060E245E020E060
:1009A0000E940D0908952C988EE08A95F1F782E057
:1009B0006FE140E023E00E940D0982E08A95F1F7A3
:1009C00008951C9B02C080E408950E94D30481E036
:1009D0006FE140E00E94FA08883011F083E4089546
:1009E0002C9A80E408950F931F93082F883051F0BC
:1009F000863041F0893031F0863121F0893111F0B3
:100A000082E44BC01C9B02C084E447C081E06FE1DC
:100A100040E00E94FA08182F8150823008F43AC052
:100A20001131C1F11231B1F10117B1F1083019F4EE
:100A30000E94D30426C0093139F4163191F482E0C2
:100A40006FE140E029E008C0063159F4193149F45A
:100A500082E06FE140E026E00E940D0982E08A9585
:100A6000F1F782E06FE140E0202F0E940D0918307D
:100A700029F48BE491E00197F1F703C082E08A95B5
:100A8000F1F781E06FE140E00E94FA08801721F061
:100A900083E403C085E401C080E41F910F910895B1
:100AA00081E06FE140E00E94FA088850823010F047
:100AB00084E4089588E160E847E021E00E940D09A0
:100AC0008DE38A95F1F788E160E847E00E94FA0833
:100AD000882311F480E4089583E408950F931F930D
:100AE000082F162F663010F082E41BC083E067E009
:100AF00040E00E94FA08811799F0002329F483E06E
:100B000068E043E021E004C083E068E043E020E0E7
:100B10000E940D0983E067E040E0212F0E940D094B
:100B200080E41F910F9108951F93162F603110F0EC
:100B300082E418C01C9B02C084E414C0882329F0FE
:100B400081E160E144E021E004C081E160E144E052
:100B500020E00E940D0981E16FE040E0212F0E941A
:100B60000D0980E41F9108951F93282F162F8330BD
:100B700098F4603188F41C9B02C084E40EC088E0C5
:100B800060E645E00E940D0989E06FE040E0212F1A
:100B90000E940D0980E401C082E41F910895282F6E
:100BA000803110F082E408951C9B02C084E4089513
:100BB00085E06FE040E00E940D0980E408951F93F6
:100BC000182F8B50803110F082E428C01C9B02C08B
:100BD00084E424C088E06FE140E00E94FA088117B5
:100BE000E1F088E06FE140E0212F0E940D0981E0F3
:100BF0006FE140E00E94FA08863011F0893021F45C
:100C000084E191E00197F1F788E06FE140E00E9414
:100C1000FA08811711F083E401C080E41F91089560
:100C20000F931F93082F162F1C9B02C084E42AC029
:100C30008CE260EF44E020E00E940D09212F30E0BB
:100C40002873307083E0359527958A95E1F78CE21B
:100C50006EE041E00E940D09212F229526952695F0
:100C600023708FE26FE040E00E940D098DE2602F5B
:100C70000E94E00817708EE267E040E0212F0E949A
:100C80000D0980E41F910F910895AF92BF92CF920A
:100C9000DF92EF92FF920F931F938C017C010894D7
:100CA000E11CF11C8BE2F80160810E94E008670101
:100CB0000894C11CD11C8AE2F80161810E94E008FD
:100CC00056010894A11CB11C89E2F70161810E94C0
:100CD000E00875010894E11CF11C88E2F6016181CD
:100CE0000E94E00887010F5F1F4F87E2F5016181D5
:100CF0000E94E00886E2F70161810E94E00885E237
:100D0000F80161810E94E00884E20F5F1F4FF80143
:100D100061810E94E0081F910F91FF90EF90DF909A
:100D2000CF90BF90AF9008951F93682F192F80E246
:100D30000E94E00881E2612F0E94E0081F9108955F
:100D40001F93682F192F82E20E94E00883E2612F2F
:100D50000E94E0081F910895EF92FF920F931F9356
:100D60007C018BE20E94C608F70181938F018AE221
:100D70000E94C608F701818378010894E11CF11CE8
:100D800089E20E94C608F801818387010F5F1F4F27
:100D900088E20E94C608F701818378010894E11C6B
:100DA000F11C87E20E94C608F801818387010F5F6A
:100DB0001F4F86E20E94C608F701818385E20E94E8
:100DC000C608F801818384E20E94C6080F5F1F4FA6
:100DD000F80181831F910F91FF90EF9008951F9369
:100DE00081E20E94C608182F81E20E94C608512F96
:100DF00040E0282F30E0242B352BC9011F910895A6
:100E00001F9383E20E94C608182F82E20E94C60840
:100E1000512F40E0282F30E0242B352BC9011F91A2
:100E2000089581E06FE140E00E94FA08893011F0F6
:100E300084E4089586E00E94F3048034A9F488E0F5
:100E400060E847E021E00E940D0982E091E001970F
:100E5000F1F781E00E94C60887FF06C086FD02C048
:100E600088E4089587E4089583E40895CF93DF9399
:100E7000EC0181E06FE140E00E94FA08863021F049
:100E8000813011F084E40DC087E060E00E94E0084A
:100E900082E091E00197F1F787E00E94C60888831D
:100EA00080E4DF91CF91089581E06FE140E00E94FE
:100EB000FA08893011F084E408958BE160E847E096
:100EC00021E00E940D098AE160E847E021E00E94EC
:100ED0000D090E94B70884E191E00197F1F70E94A3
:100EE000B408882381F08BE160E847E00E94FA08AB
:100EF000882349F48AE160E847E00E94FA088823E1
:100F000011F480E4089583E408950F931F930CEA8D
:100F100013E0C8010197F1F70E94D9070E94ED0381
:100F200082E06FE140E023E00E940D09C8010197D3
:100F3000F1F781E06FE140E00E94FA08883011F09B
:100F400083E411C08DE10E94C608823059F48EE11D
:100F50000E94C6088F3131F48EE06FEF0E94E008E6
:100F600080E401C081E41F910F910895DF93CF9336
:100F70000F92CDB7DEB78FB78983109234061092E7
:100F800035061092360610923706109238061092E7
:100F9000390610923A0610923C0610923B061092C7
:100FA0003E0610923D0689818FBF0F90CF91DF9151
:100FB000089510923306109232060E94B607249AC2
:100FC000259A269A579A84B1876084B985B183603F
:100FD00085B980E58CBD81E08DBD83E4809381007F
:100FE000B59AEFE6F0E08081816080838081806245
:100FF00080830895809134060895DF93CF930F92F4
:10100000CDB7DEB78FB789831092340689818FBF41
:101010000F90CF91DF910895809135060895DF9369
:10102000CF930F92CDB7DEB78FB789831092350675
:1010300089818FBF0F90CF91DF91089580913606FF
:101040000895DF93CF930F92CDB7DEB78FB7898323
:101050001092360689818FBF0F90CF91DF9108954E
:1010600080913D0690913E060895DF93CF930F92B5
:10107000CDB7DEB72FB7298390933E0680933D0608
:1010800089818FBF0F90CF91DF910895DF93CF9328
:101090000F92CDB7DEB78FB7898310923E061092BC
:1010A0003D0689818FBF0F90CF91DF910895809188
:1010B00037060895DF93CF930F92CDB7DEB78FB782
:1010C00089831092370689818FBF0F90CF91DF916E
:1010D000089580913B0690913C060895DF93CF934D
:1010E0000F92CDB7DEB72FB7298390933C0680933C
:1010F0003B0689818FBF0F90CF91DF910895DF93D9
:10110000CF930F92CDB7DEB78FB7898310923C068D
:1011100010923B0689818FBF0F90CF91DF91089588
:10112000809138060895DF93CF930F92CDB7DEB745
:101130008FB789831092380689818FBF0F90CF9126
:10114000DF910895809139060895DF93CF930F9230
:10115000CDB7DEB78FB789831092390689818FBFEB
:101160000F90CF91DF91089580913A060895DF9313
:10117000CF930F92CDB7DEB78FB7898310923A061F
:1011800089818FBF0F90CF91DF910895DF93CF9327
:101190000F92CDB7DEB780689FB7998328988EBD30
:1011A0000DB407FEFDCF8EB58EBD0DB407FEFDCF8D
:1011B0008EB5289A99819FBF0F90CF91DF910895A6
:1011C000DF93CF930F92CDB7DEB7806C9FB7998333
:1011D00028988EBD0DB407FEFDCF8EB56EBD0DB443
:1011E00007FEFDCF8EB5289A89818FBF0F90CF91D2
:1011F000DF910895FF920F931F93062FF42E0E9404
:10120000C608082310E002C015950795FA94E2F786
:10121000802F1F910F91FF900895DF92EF92FF9220
:101220000F931F93D82EF62EE42E022F0E94C6088D
:101230006F2D6095682310E002C0000F111FEA9423
:10124000E2F7F0226F298D2D0E94E0081F910F9187
:10125000FF90EF90DF900895DF93CF930F92CDB77B
:10126000DEB7FC018FB78983289880E28EBD0DB46C
:1012700007FEFDCF8EB58EBD0DB407FEFDCF9EB52A
:10128000892F83508D3760F590839EBD0DB407FE86
:10129000FDCFDF01119620E030E08EB58EBD8D933D
:1012A0002827022E2295207F2025032E322F2295DB
:1012B0002F700226269532272327220F220F220F76
:1012C00020250DB407FEFDCF915039F78EB5E058BB
:1012D000FF4F8193289A232B41F481E0808306C03D
:1012E000289A1082E058FF4F1192108289818FBF97
:1012F0000F90CF91DF910895DF93CF930F92CDB7E9
:10130000DEB7FC016F778FB78983289880E68EBDA2
:101310000DB407FEFDCF8EB56EBD0DB407FEFDCF3B
:101320008EB581918EBD61500DB407FEFDCF8EB597
:101330006623B9F7289A89818FBF0F90CF91DF91EB
:101340000895DF93CF930F92CDB7DEB7982FFA01B0
:101350008FB7898328981EBC0DB407FEFDCF8EB5CC
:101360009EBD0DB407FEFDCF8EB51EBC0DB407FEAD
:10137000FDCF8EB58083615011F03196F6CF289A5B
:1013800089818FBF0F90CF91DF910895DF93CF9325
:101390000F92CDB7DEB7982FFA018FB789832898BF
:1013A00080E48EBD0DB407FEFDCF8EB59EBD0DB49D
:1013B00007FEFDCF8EB581918EBD0DB407FEFDCF2A
:1013C0008EB56150C1F7289A89818FBF0F90CF9158
:1013D000DF910895DF93CF930F92CDB7DEB7982FAB
:1013E000DB0182E08A95F1F78FB78983289880E442
:1013F0008EBD0DB407FEFDCF9EBD0DB407FEFDCF23
:101400008C918EBD0DB407FEFDCF942FFD0107C05A
:1014100081818EBD0DB407FEFDCF8EB581939150B5
:10142000B9F74150FD01E40FF11D1EBC0DB407FEDC
:10143000FDCF8EB58083289A89818FBF0F90CF9181
:10144000DF910895DF93CF930F92CDB7DEB7209150
:1014500032063091330640E050E0A90133272227BD
:101460008FB78983809184009091850069816FBFD7
:10147000A0E0B0E0282B392B4A2B5B2B56954795E3
:1014800037952795B901CA010F90CF91DF91089543
:101490001F920F920FB60F920BB60F9211240F935B
:1014A0001F932F933F934F935F936F937F938F93EC
:1014B0009F93AF93BF93EF93FF93809132069091E8
:1014C0003306A0E0B0E09C01112700278091840042
:1014D00090918500A0E0B0E0082B192B2A2B3B2B24
:1014E00028988FE88EBD36952795179507950DB4EA
:1014F00007FEFDCF8EB58EBD0DB407FEFDCF9EB5A8
:10150000289A92FF1DC0809137068F5F809337061F
:10151000E0913B06F0913C06309709F44FC02898C3
:1015200080E28EBD0DB407FEFDCF8EB58EBD0DB42D
:1015300007FEFDCF4EB5289AC901B80109953EC0F6
:1015400093FF0FC0809136068F5F80933606E0913F
:101550003D06F0913E06309789F1C901B801099521
:101560002DC096FF06C0809135068F5F80933506AB
:1015700025C091FF06C0809139068F5F80933906A0
:101580001DC090FF06C080913A068F5F80933A0697
:1015900015C097FF0EC08EE00E94C608682F6F77B7
:1015A0008EE00E94E008809134068F5F80933406BD
:1015B00005C0809138068F5F80933806FF91EF91C8
:1015C000BF91AF919F918F917F916F915F914F915B
:1015D0003F912F911F910F910F900BBE0F900FBE57
:1015E0000F901F9018951F920F920FB60F92112413
:1015F0008F939F938091320690913306019690933A
:101600003306809332069F918F910F900FBE0F90FB
:101610001F901895991B79E004C0991F961708F040
:10162000961B881F7A95C9F78095089597FB092E18
:1016300007260AD077FD04D00CD006D000201AF47B
:10164000709561957F4F0895F6F7909581959F4F1E
:101650000895AA1BBB1B51E107C0AA1FBB1FA617F9
:10166000B70710F0A61BB70B881F991F5A95A9F74B
:0E16700080959095BC01CD010895F894FFCFB0
:10167E009B0230313233343536373839003031321F
:10168E0033343536373839414243444546004120DC
:10169E00666174616C206572726F722E205379735D
:1016AE0074656D206D757374206265207265736547
:1016BE00742E0D0A000D3C2D2D2D54797065204D84
:1016CE006573736167653A0D0A005258204275665C
:1016DE00666572204F766572666C6F77210D0A0013
:1016EE005458204661696C6564210D0A005374617B
:1016FE007465207472616E736974696F6E206661B1
:0A170E00696C65640D0A00200000FC
:00000001FF
