:100000000C9466000C9485000C9485000C9485007B
:100010000C9485000C9485000C9485000C9485004C
:100020000C9485000C9485000C9485000C9485003C
:100030000C9485000C9485000C9485000C9485002C
:100040000C94370A0C9485000C9485000C94850060
:100050000C94E20A0C9485000C9485000C948500A5
:100060000C9485000C94D0010C9485000C948500B0
:100070000C9485000C9485000C9485000C948500EC
:100080000C9485000C9485000C9485000C948500DC
:100090000C9485000C9485000C9485000C948500CC
:1000A0000C9485000C9485000C9485000C948500BC
:1000B0000C9485000C9485000C9485000C948500AC
:1000C0000C9485000C9485000C94850011241FBEAF
:1000D000CFEFD1E2DEBFCDBF12E0A0E0B2E0ECE5B1
:1000E000F6E100E00BBF02C007900D92A037B10708
:1000F000D9F716E0A0E7B2E001C01D92A430B10725
:10010000E1F70E9432020C942C0B0C940000109228
:10011000C5008093C400A1ECB0E08C9180618C9309
:100120008C9188608C93E2ECF0E080818660808323
:1001300010925D03109260038C9180688C930895F7
:10014000FC0107C08091C00085FFFCCF81918093A6
:10015000C6006150B9F70895982F8091C00085FFBF
:10016000FCCF8091C00085FFFCCF8091C00085FF4F
:10017000FCCFE92FE295EF70F0E0E35FFD4F808167
:100180008093C6008091C00085FFFCCFE92FF0E08E
:10019000EF70F070E35FFD4F80818093C60008959B
:1001A000282F8091C00085FFFCCF80E38093C6009C
:1001B0008091C00085FFFCCF822F64E60E94F90A7F
:1001C0006AE00E94F90AE92FF0E0EE5FFD4F8081BE
:1001D0008093C6008091C00085FFFCCF822F6AE02B
:1001E0000E94F90A0E94F90AE92FF0E0EE5FFD4F44
:1001F00080818093C6008091C00085FFFCCF822F54
:100200006AE00E94F90AE92FF0E0EE5FFD4F80817D
:100210008093C600089560E177E20E94050B9C017F
:100220008091C00085FFFCCFC90168EE73E00E9499
:10023000050BFB01EE5FFD4F80818093C60080912E
:10024000C00085FFFCCFC90164E670E00E94050B89
:10025000CB016AE070E00E94050BFC01EE5FFD4FF0
:1002600080818093C6008091C00085FFFCCFC901CA
:100270006AE070E00E94050BCB016AE070E00E942A
:10028000050BFC01EE5FFD4F80818093C6008091DD
:10029000C00085FFFCCFC9016AE070E00E94050B39
:1002A000FC01EE5FFD4F80818093C600089560E100
:1002B00077E20E94050B9B018091C00085FFFCCF77
:1002C000C90168EE73E00E94050BFB01EE5FFD4F74
:1002D00080818093C6008091C00085FFFCCFC9015A
:1002E00064E670E00E94050BCB016AE070E00E94BA
:1002F000050BFC01EE5FFD4F80818093C60080916D
:10030000C00085FFFCCFC9016AE070E00E94050BC8
:10031000CB016AE070E00E94050BFC01EE5FFD4F2F
:1003200080818093C6008091C00085FFFCCFC90109
:100330006AE070E00E94050BFC01EE5FFD4F8081DA
:100340008093C600089580917002882319F427EEE7
:1003500032E002C021E732E0C901089580916003D4
:10036000882349F080917002882319F080915E0300
:10037000089580915F0308958091C1008F778093E5
:10038000C1001092600302C08091C6008091C0003D
:1003900087FDFACF8091C10080688093C1000895E5
:1003A0001F920F920FB60F920BB60F9211242F933C
:1003B0008F939F93AF93BF93EF93FF939091C6005A
:1003C00080915D038437D8F59A3011F09D3051F556
:1003D000E0910002F0910102DF019D931182282F2C
:1003E0002D5F11961C9291E09093600380917002B2
:1003F000882359F01092700281E792E090930102F5
:100400008093000220935F030AC09093700287EEEE
:1004100092E0909301028093000220935E03109279
:100420005D0312C08F5F80935D03E0910002F09145
:1004300001029193F0930102E093000205C081E074
:1004400080935D0380936003FF91EF91BF91AF9123
:100450009F918F912F910F900BBE0F900FBE0F9019
:100460001F901895FF920F931F93CF93DF9311E086
:100470001093F60581E68093640388E88093650312
:100480008FEA809367038EEB809368038DEA8093F5
:1004900069038AEB80936A038CED80936B038CEA8B
:1004A00080936C0323EE33E03093EC052093EB054F
:1004B00089E695E09093EE058093ED053093F00585
:1004C0002093EF059093F2058093F10584E08093EB
:1004D000F3051092F4051092F5058FE20E94870053
:1004E0000E947407803459F48BE00E94CE0580345A
:1004F00031F481E060E00E945D05803419F01092D3
:1005000063032AC08CE063E040E020E00E94FC0826
:100510008DE068E043E020E00E94FC088DE064E0AC
:1005200042E020E00E94FC088CED9CEA0E948306D9
:100530008FEA9EEB0E948F0680E00E94AD048AEE57
:1005400062EE0E94FF0581E00E94B4048EE993E010
:100550000E9424081093630386E10E94E204803421
:1005600029F08EE192E067E20E94A00078948998D9
:1005700085E492E065E10E94A0008CE10E94B5084C
:10058000809362038DE10E94B5088093610303EEBE
:1005900013E0C9E6D5E084E0F82E8091F4058823C5
:1005A00009F4A6C088982091F1053091F205809158
:1005B000ED059091EE052817390749F48091EB0578
:1005C0009091EC059093F2058093F10506C02E57AB
:1005D0003F4F3093F2052093F105F8948091F30595
:1005E0008F5F8093F3058091F40581508093F4052B
:1005F0007894E091F105F091F20583850E94AC00BA
:10060000E091F105F091F20582850E94AC00E09145
:10061000F105F091F20580810E94AC00E091F105B6
:10062000F091F20585810E94AC00E091F105F09116
:10063000F20584810E94AC00E091F105F091F20591
:1006400084890E94AC00E091F105F091F20583816C
:100650000E94AC00E091F105F091F20587810E94C3
:10066000AC00E091F105F091F20586810E94AC00AA
:10067000E091F105F091F20581850E94AC00E091D6
:10068000F105F091F20580850E94AC00E091F10542
:10069000F091F20585850E94AC00E091F105F091A2
:1006A000F20586850E94AC00E091F105F091F2051B
:1006B00087850E94AC00E091F105F091F2058189F7
:1006C0000E94AC00E091F105F091F20580890E9452
:1006D000AC00E091F105F091F20583890E94AC0035
:1006E000E091F105F091F20582890E94AC00889AB0
:1006F0008091F5058823E9F0F8941093EC050093B8
:10070000EB05D093EE05C093ED051093F005009333
:10071000EF05D093F205C093F105F092F305109226
:10072000F4051092F5058AE592E066E10E94A000CA
:1007300078940E94AE01809362032FCF8091F605DA
:100740008823C9F18091F305882321F481E0809307
:10075000F50508958091EF059091F0050E941B0921
:10076000E091EF05F091F005EF57FF4F8081E158E0
:10077000F040882301F18091ED059091EE05E81796
:10078000F90749F48091EB059091EC059093F00501
:100790008093EF0506C0EE57FF4FF093F005E0930E
:1007A000EF058091F30581508093F3058091F40566
:1007B0008F5F8093F40508952D982C988EE08A958C
:1007C000F1F72D9A08958EE268E043E00E94E9086F
:1007D000089581E06FE140E00E94E90808950F93D9
:1007E0001F93CF93DF93082FEB01142F85508B3786
:1007F00010F082E431C081E06FE140E00E94E9083E
:10080000893111F084E428C00E9410082C9A2C9899
:10081000CE01602F0E946B090E940D088823E1F32E
:1008200082E060EE45E00E94E9088823A1F0833071
:1008300011F08EE401C08DE4112371F081E06FE1CD
:1008400040E00E94E9088931C9F711500E94100860
:100850002C9A2C98E1CF80E4DF91CF911F910F91DA
:1008600008951F93CF93DF93182FEB0187FF02C0EA
:1008700082E410C081E06FE140E00E94E908893025
:1008800011F084E407C02C9A2C98CE01612F0E94AD
:100890006B0980E4DF91CF911F9108951C9902C0EC
:1008A00080E408952C9886E596E00197F1F781E0C1
:1008B0006FE140E00E94E908883091F383E40895F5
:1008C00083E067E040E00E94E908089581E160E28A
:1008D00045E00E94E908882311F08BE408958AE43A
:1008E000089581E160E144E00E94E908089581E112
:1008F0006FE040E00E94E9080895CF93DF93EC0198
:1009000081E06FE140E00E94E908863021F081300B
:1009100011F084E407C086E06FE140E00E94E9083E
:10092000888380E4DF91CF91089589E06FE040E013
:100930000E94E908089588E060E645E00E94E90821
:10094000089585E06FE040E00E94E908089588E09E
:100950006FE140E00E94E90808958EE268E043E01C
:1009600020E00E94FC080895882329F084E060E2DA
:1009700045E021E004C084E060E245E020E00E9420
:10098000FC0808952C988EE08A95F1F782E06FE1DB
:1009900040E023E00E94FC0882E08A95F1F7089588
:1009A0001C9B02C080E408950E94C20481E06FE1B4
:1009B00040E00E94E908883011F083E408952C9A01
:1009C00080E408950F931F93082F883051F08630EC
:1009D00041F0893031F0863121F0893111F082E423
:1009E0004BC01C9B02C084E447C081E06FE140E043
:1009F0000E94E908182F8150823008F43AC0113162
:100A0000C1F11231B1F10117B1F1083019F40E94AE
:100A1000C20426C0093139F4163191F482E06FE145
:100A200040E029E008C0063159F4193149F482E068
:100A30006FE140E026E00E94FC0882E08A95F1F731
:100A400082E06FE140E0202F0E94FC08183029F47A
:100A50008BE491E00197F1F703C082E08A95F1F70A
:100A600081E06FE140E00E94E908801721F083E413
:100A700003C085E401C080E41F910F91089581E0D7
:100A80006FE140E00E94E9088850823010F084E471
:100A9000089588E160E847E021E00E94FC088DE3CA
:100AA0008A95F1F788E160E847E00E94E908882329
:100AB00011F480E4089583E408950F931F93082FA1
:100AC000162F663010F082E41BC083E067E040E040
:100AD0000E94E908811799F0002329F483E068E077
:100AE00043E021E004C083E068E043E020E00E94AE
:100AF000FC0883E067E040E0212F0E94FC0880E4CE
:100B00001F910F9108951F93162F603110F082E40A
:100B100018C01C9B02C084E414C0882329F081E122
:100B200060E144E021E004C081E160E144E020E0D4
:100B30000E94FC0881E16FE040E0212F0E94FC0848
:100B400080E41F9108951F93282F162F833098F467
:100B5000603188F41C9B02C084E40EC088E060E62B
:100B600045E00E94FC0889E06FE040E0212F0E94F0
:100B7000FC0880E401C082E41F910895282F803191
:100B800010F082E408951C9B02C084E4089585E07F
:100B90006FE040E00E94FC0880E408951F93182F46
:100BA0008B50803110F082E428C01C9B02C084E48A
:100BB00024C088E06FE140E00E94E9088117E1F07D
:100BC00088E06FE140E0212F0E94FC0881E06FE1A6
:100BD00040E00E94E908863011F0893021F484E178
:100BE00091E00197F1F788E06FE140E00E94E908A9
:100BF000811711F083E401C080E41F9108950F93E1
:100C00001F93082F162F1C9B02C084E42AC08CE27D
:100C100060EF44E020E00E94FC08212F30E02873C0
:100C2000307083E0359527958A95E1F78CE26EE088
:100C300041E00E94FC08212F2295269526952370DD
:100C40008FE26FE040E00E94FC088DE2602F0E947E
:100C5000CF0817708EE267E040E0212F0E94FC0869
:100C600080E41F910F910895AF92BF92CF92DF92CF
:100C7000EF92FF920F931F938C017C010894E11C6B
:100C8000F11C8BE2F80160810E94CF086701089493
:100C9000C11CD11C8AE2F80161810E94CF08560173
:100CA0000894A11CB11C89E2F70161810E94CF0860
:100CB00075010894E11CF11C88E2F60161810E9433
:100CC000CF0887010F5F1F4F87E2F50161810E9406
:100CD000CF0886E2F70161810E94CF0885E2F80122
:100CE00061810E94CF0884E20F5F1F4FF80161818C
:100CF0000E94CF081F910F91FF90EF90DF90CF904F
:100D0000BF90AF9008951F93682F192F80E20E9423
:100D1000CF0881E2612F0E94CF081F9108951F9391
:100D2000682F192F82E20E94CF0883E2612F0E9470
:100D3000CF081F910895EF92FF920F931F937C01AC
:100D40008BE20E94B508F70181938F018AE20E942D
:100D5000B508F701818378010894E11CF11C89E250
:100D60000E94B508F801818387010F5F1F4F88E259
:100D70000E94B508F701818378010894E11CF11CF9
:100D800087E20E94B508F801818387010F5F1F4F3A
:100D900086E20E94B508F701818385E20E94B508CA
:100DA000F801818384E20E94B5080F5F1F4FF801AC
:100DB00081831F910F91FF90EF9008951F9381E21F
:100DC0000E94B508182F81E20E94B508512F40E01B
:100DD000282F30E0242B352BC9011F9108951F9334
:100DE00083E20E94B508182F82E20E94B508512FB5
:100DF00040E0282F30E0242B352BC9011F910895A6
:100E000081E06FE140E00E94E908893011F084E45C
:100E1000089586E00E94E2048034A9F488E060E846
:100E200047E021E00E94FC0882E091E00197F1F7A1
:100E300081E00E94B50887FF06C086FD02C088E4F5
:100E4000089587E4089583E40895CF93DF93EC0138
:100E500081E06FE140E00E94E908863021F08130B6
:100E600011F084E40DC087E060E00E94CF0882E0CA
:100E700091E00197F1F787E00E94B508888380E44C
:100E8000DF91CF91089581E06FE140E00E94E90891
:100E9000893011F084E408958BE160E847E021E0B7
:100EA0000E94FC088AE160E847E021E00E94FC081B
:100EB0000E94A60884E191E00197F1F70E94A3083F
:100EC000882381F08BE160E847E00E94E9088823ED
:100ED00049F48AE160E847E00E94E908882311F4B8
:100EE00080E4089583E408950F931F930CEA13E0C0
:100EF000C8010197F1F70E94C8070E94DC0382E055
:100F00006FE140E023E00E94FC08C8010197F1F77F
:100F100081E06FE140E00E94E908883011F083E44D
:100F200011C08DE10E94B508823059F48EE10E9413
:100F3000B5088F3131F48EE06FEF0E94CF0880E466
:100F400001C081E41F910F910895DF93CF930F9219
:100F5000CDB7DEB78FB789831092F9051092FA05E5
:100F60001092FB051092FC051092FD051092FE05F3
:100F70001092FF05109201061092000610920306CF
:100F80001092020689818FBF0F90CF91DF91089553
:100F90001092F8051092F7050E94A507249A259A49
:100FA000809A819A84B1876084B985B1836085B95C
:100FB00080E58CBD81E08DBD83E480938100B59A8E
:100FC000EFE6F0E0808181608083808180628083B1
:100FD00008958091F9050895DF93CF930F92CDB7CF
:100FE000DEB78FB789831092F90589818FBF0F9083
:100FF000CF91DF9108958091FA050895DF93CF9303
:101000000F92CDB7DEB78FB789831092FA05898129
:101010008FBF0F90CF91DF9108958091FB050895C8
:10102000DF93CF930F92CDB7DEB78FB7898310923E
:10103000FB0589818FBF0F90CF91DF91089580913B
:101040000206909103060895DF93CF930F92CDB7D8
:10105000DEB72FB729839093030680930206898118
:101060008FBF0F90CF91DF910895DF93CF930F92B1
:10107000CDB7DEB78FB789831092030610920206B0
:1010800089818FBF0F90CF91DF9108958091FC05EA
:101090000895DF93CF930F92CDB7DEB78FB78983D3
:1010A0001092FC0589818FBF0F90CF91DF91089539
:1010B00080910006909101060895DF93CF930F92DF
:1010C000CDB7DEB72FB72983909301068093000632
:1010D00089818FBF0F90CF91DF910895DF93CF93D8
:1010E0000F92CDB7DEB78FB78983109201061092A9
:1010F000000689818FBF0F90CF91DF910895809175
:10110000FD050895DF93CF930F92CDB7DEB78FB76C
:1011100089831092FD0589818FBF0F90CF91DF9158
:1011200008958091FE050895DF93CF930F92CDB778
:10113000DEB78FB789831092FE0589818FBF0F902C
:10114000CF91DF9108958091FF050895DF93CF93AC
:101150000F92CDB7DEB78FB789831092FF058981D3
:101160008FBF0F90CF91DF910895DF93CF930F92B0
:10117000CDB7DEB780689FB7998328988EBD0DB430
:1011800007FEFDCF8EB58EBD0DB407FEFDCF8EB52B
:10119000289A99819FBF0F90CF91DF910895DF9397
:1011A000CF930F92CDB7DEB7806C9FB79983289805
:1011B0008EBD0DB407FEFDCF8EB56EBD0DB407FE1E
:1011C000FDCF8EB5289A89818FBF0F90CF91DF9187
:1011D0000895FF920F931F93062FF42E0E94B508D7
:1011E000082310E002C015950795FA94E2F7802FC6
:1011F0001F910F91FF900895DF92EF92FF920F934E
:101200001F93D82EF62EE42E022F0E94B5086F2DC4
:101210006095682310E002C0000F111FEA94E2F706
:10122000F0226F298D2D0E94CF081F910F91FF9002
:10123000EF90DF900895DF93CF930F92CDB7DEB795
:10124000FC018FB78983289880E28EBD0DB407FE1C
:10125000FDCF8EB58EBD0DB407FEFDCF9EB5892F97
:1012600083508D3760F590839EBD0DB407FEFDCF92
:10127000DF01119620E030E08EB58EBD8D932827DA
:10128000022E2295207F2025032E322F22952F70AB
:101290000226269532272327220F220F220F2025F0
:1012A0000DB407FEFDCF915039F78EB5E058FF4FD2
:1012B0008193289A232B41F481E0808306C0289AE9
:1012C0001082E058FF4F1192108289818FBF0F90DA
:1012D000CF91DF910895DF93CF930F92CDB7DEB713
:1012E000FC016F778FB78983289880E68EBD0DB497
:1012F00007FEFDCF8EB56EBD0DB407FEFDCF8EB5DA
:1013000081918EBD61500DB407FEFDCF8EB5662371
:10131000B9F7289A89818FBF0F90CF91DF910895F7
:10132000DF93CF930F92CDB7DEB7982FFA018FB727
:10133000898328981EBC0DB407FEFDCF8EB59EBDD7
:101340000DB407FEFDCF8EB51EBC0DB407FEFDCF5C
:101350008EB58083615011F03196F6CF289A89813D
:101360008FBF0F90CF91DF910895DF93CF930F92AE
:10137000CDB7DEB7982FFA018FB78983289880E41C
:101380008EBD0DB407FEFDCF8EB59EBD0DB407FE1C
:10139000FDCF8EB581918EBD0DB407FEFDCF8EB50C
:1013A0006150C1F7289A89818FBF0F90CF91DF914B
:1013B0000895DF93CF930F92CDB7DEB7982FDB015F
:1013C00082E08A95F1F78FB78983289880E48EBDF3
:1013D0000DB407FEFDCF9EBD0DB407FEFDCF8C9171
:1013E0008EBD0DB407FEFDCF942FFD0107C0818196
:1013F0008EBD0DB407FEFDCF8EB581939150B9F728
:101400004150FD01E40FF11D1EBC0DB407FEFDCFE0
:101410008EB58083289A89818FBF0F90CF91DF91FD
:101420000895DF93CF930F92CDB7DEB72091F705E4
:101430003091F80540E050E0A901332722278FB70B
:101440008983809184009091850069816FBFA0E0BD
:10145000B0E0282B392B4A2B5B2B569547953795B7
:101460002795B901CA010F90CF91DF9108951F927E
:101470000F920FB60F920BB60F9211240F931F937A
:101480002F933F934F935F936F937F938F939F938C
:10149000AF93BF93EF93FF938091F7059091F80579
:1014A000A0E0B0E09C01112700278091840090917A
:1014B0008500A0E0B0E0082B192B2A2B3B2B2898A5
:1014C0008FE88EBD36952795179507950DB407FEC5
:1014D000FDCF8EB58EBD0DB407FEFDCF9EB5289A0B
:1014E00092FF1DC08091FC058F5F8093FC05E09109
:1014F0000006F0910106309709F44FC0289880E269
:101500008EBD0DB407FEFDCF8EB58EBD0DB407FEAA
:10151000FDCF4EB5289AC901B80109953EC093FF89
:101520000FC08091FB058F5F8093FB05E091020661
:10153000F0910306309789F1C901B80109952DC0D2
:1015400096FF06C08091FA058F5F8093FA0525C04B
:1015500091FF06C08091FE058F5F8093FE051DC040
:1015600090FF06C08091FF058F5F8093FF0515C037
:1015700097FF0EC08EE00E94B508682F6F778EE04F
:101580000E94CF088091F9058F5F8093F90505C00F
:101590008091FD058F5F8093FD05FF91EF91BF91D5
:1015A000AF919F918F917F916F915F914F913F91FB
:1015B0002F911F910F910F900BBE0F900FBE0F90A8
:1015C0001F9018951F920F920FB60F9211248F93B0
:1015D0009F938091F7059091F80501969093F805F7
:1015E0008093F7059F918F910F900FBE0F901F90E2
:1015F0001895991B79E004C0991F961708F0961B5F
:10160000881F7A95C9F78095089597FB092E0726BC
:101610000AD077FD04D00CD006D000201AF47095C3
:1016200061957F4F0895F6F7909581959F4F0895A6
:10163000AA1BBB1B51E107C0AA1FBB1FA617B707F8
:1016400010F0A61BB70B881F991F5A95A9F7809514
:0C1650009095BC01CD010895F894FFCFE7
:10165C00710230313233343536373839003031326B
:10166C0033343536373839414243444546004120FE
:10167C00666174616C206572726F722E205379737F
:10168C0074656D206D757374206265207265736569
:10169C00742E0D0A000D3C2D2D2D54797065204DA6
:1016AC006573736167653A0D0A005258204275667E
:1016BC00666572204F766572666C6F77210D0A0035
:00000001FF
