:100000000C9446000C9465000C9465000C946500FB
:100010000C9465000C9465000C9465000C946500CC
:100020000C9465000C9465000C9465000C94AB0373
:100030000C9465000C9465000C9450040C946500BD
:100040000C9465000C9465000C94BE000C94650043
:100050000C9465000C9465000C9465000C9465008C
:100060000C9465000C9465000C9465000C9465007C
:100070000C9465000C9465000C9465000C9465006C
:100080000C9465000C9465000C94650011241FBE4F
:10009000CFEFD0E1DEBFCDBF11E0A0E0B1E0EEE0F8
:1000A000F4E100E00BBF02C007900D92A636B10745
:1000B000D9F714E0A6E6B1E001C01D92AB37B10755
:1000C000E1F70E9467040C94050A0C9400000E945A
:1000D000D50908951092900089B9549A539AE5E988
:1000E000F0E0808186608083109253021092560265
:1000F0000895FC0104C05D9BFECF81918CB96150D5
:10010000D1F70895982F5D9BFECF5D9BFECF5D9B41
:10011000FECFE92FE295EF70F0E0EE5FFE4F8081B9
:100120008CB95D9BFECFE92FF0E0EF70F070EE5FD1
:10013000FE4F80818CB9089580916601882319F45F
:100140002DED31E002C027E631E0C901089580912C
:100150005602882349F080916601882319F0809126
:1001600054020895809155020895579810925602AE
:1001700001C08CB15F99FDCF579A08951F920F92DD
:100180000FB60F920BB60F9211242F938F939F935C
:10019000AF93BF93EF93FF939CB180915302843749
:1001A000D8F59A3011F09D3051F5E0910001F091B1
:1001B0000101DF019D931182282F2D5F11961C9262
:1001C00091E09093560280916601882359F0109235
:1001D000660187E691E090930101809300012093EE
:1001E00055020AC0909366018DED91E09093010154
:1001F00080930001209354021092530212C08F5F2B
:1002000080935302E0910001F09101019193F093EA
:100210000101E093000105C081E0809353028093C7
:100220005602FF91EF91BF91AF919F918F912F91C6
:100230000F900BBE0F900FBE0F901F901895DF937D
:10024000CF930F92CDB7DEB78FB789831092590243
:1002500010925A0210925B0210925C0210925D02A0
:1002600010925E0210925F02109261021092600280
:10027000109263021092620289818FBF0F90CF911A
:10028000DF91089510925802109257020E941F01A8
:10029000BD9ABC9AE1E6F0E0808181608083808134
:1002A0008260808387B3876087BB88B3836088BBA5
:1002B00080E58DB981E08EB983E48EBD86B780621A
:1002C00086BF87B7846087BF87B7806287BF8FB7D5
:1002D00080688FBF0895809159020895DF93CF936E
:1002E0000F92CDB7DEB78FB78983109259028981FB
:1002F0008FBF0F90CF91DF91089580915A0208959A
:10030000DF93CF930F92CDB7DEB78FB7898310926B
:100310005A0289818FBF0F90CF91DF91089580910C
:100320005B020895DF93CF930F92CDB7DEB78FB7FF
:10033000898310925B0289818FBF0F90CF91DF91EB
:10034000089580916202909163020895DF93CF93A4
:100350000F92CDB7DEB72FB72983909363028093B6
:10036000620289818FBF0F90CF91DF910895DF9353
:10037000CF930F92CDB7DEB78FB789831092630208
:100380001092620289818FBF0F90CF91DF91089503
:1003900080915C020895DF93CF930F92CDB7DEB7C3
:1003A0008FB7898310925C0289818FBF0F90CF91A4
:1003B000DF91089580916002909161020895DF932A
:1003C000CF930F92CDB7DEB72FB7298390936102F9
:1003D0008093600289818FBF0F90CF91DF91089544
:1003E000DF93CF930F92CDB7DEB78FB7898310928B
:1003F00061021092600289818FBF0F90CF91DF91CF
:10040000089580915D020895DF93CF930F92CDB749
:10041000DEB78FB7898310925D0289818FBF0F90FD
:10042000CF91DF91089580915E020895DF93CF937D
:100430000F92CDB7DEB78FB7898310925E028981A4
:100440008FBF0F90CF91DF91089580915F02089543
:10045000DF93CF930F92CDB7DEB78FB7898310921A
:100460005F0289818FBF0F90CF91DF910895DF9355
:10047000CF930F92CDB7DEB780689FB79983C098AE
:100480008FB9779BFECF8FB18FB9779BFECF8FB19E
:10049000C09A99819FBF0F90CF91DF910895DF930C
:1004A000CF930F92CDB7DEB7806C9FB79983C0987A
:1004B0008FB9779BFECF8FB16FB9779BFECF8FB18E
:1004C000C09A89818FBF0F90CF91DF910895FF92DD
:1004D0000F931F93062FF42E0E943702082310E07B
:1004E00002C015950795FA94E2F7802F1F910F919E
:1004F000FF900895DF92EF92FF920F931F93D82EF3
:10050000F62EE42E022F0E9437026F2D609568238D
:1005100010E002C0000F111FEA94E2F7F0226F29E9
:100520008D2D0E944F021F910F91FF90EF90DF9051
:100530000895DF93CF930F92CDB7DEB7FC01809182
:10054000610088608093610080916200877F809362
:1005500062008FB78983C09880E28FB9779BFECF06
:100560008FB18FB9779BFECF9FB1892F83508D3785
:1005700050F590839FB9779BFECFDF01119620E065
:1005800030E08FB18FB98D932827022E2295207FDE
:100590002025032E322F22952F70022626953227F2
:1005A0002327220F220F220F2025779BFECF915069
:1005B00041F78FB1E058FF4F8193C09A232B41F44C
:1005C00081E0808306C0C09A1082E058FF4F1192EC
:1005D000108289818FBF0F90CF91DF910895DF93B3
:1005E000CF930F92CDB7DEB7FC016F778FB78983BA
:1005F000C09880E68FB9779BFECF8FB16FB9779B9C
:10060000FECF8FB181918FB96150779BFECF8FB1B3
:100610006623C1F7C09A89818FBF0F90CF91DF9178
:100620000895DF93CF930F92CDB7DEB7982FFA01DD
:100630008FB78983C0981FB8779BFECF8FB19FB9C2
:10064000779BFECF8FB11FB8779BFECF8FB1808392
:10065000615011F03196F7CFC09A89818FBF0F900A
:10066000CF91DF910895DF93CF930F92CDB7DEB78F
:10067000982FFA018FB78983C09880E48FB9779B50
:10068000FECF8FB19FB9779BFECF8FB181918FB98C
:10069000779BFECF8FB16150C9F7C09A89818FBF18
:1006A0000F90CF91DF910895DF93CF930F92CDB745
:1006B000DEB7982FDB0182E08A95F1F78FB7898347
:1006C000C09880E48FB9779BFECF9FB9779BFECF10
:1006D0008C918FB9779BFECF942FFD0106C081814D
:1006E0008FB9779BFECF8FB181939150C1F7415065
:1006F000FD01E40FF11D1FB8779BFECF8FB1808302
:10070000C09A89818FBF0F90CF91DF910895DF93B9
:10071000CF930F92CDB7DEB7209157023091580298
:1007200040E050E0A901332722278FB789838CB599
:100730009DB569816FBFA0E0B0E0282B392B4A2B13
:100740005B2B5695479537952795B901CA010F90B0
:10075000CF91DF9108951F920F920FB60F920BB6B3
:100760000F9211240F931F932F933F934F935F93F7
:100770006F937F938F939F93AF93BF93EF93FF9369
:100780008091570290915802A0E0B0E09C0111279F
:1007900000278CB59DB5A0E0B0E0082B192B2A2BC3
:1007A0003B2BC0988FE88FB93695279517950795FD
:1007B000779BFECF8FB18FB9779BFECF9FB1C09A49
:1007C00092FF1BC080915C028F5F80935C02E0917E
:1007D0006002F0916102309709F44DC0C09880E248
:1007E0008FB9779BFECF8FB18FB9779BFECF4FB17B
:1007F000C09AC901B80109953EC093FF0FC080910E
:100800005B028F5F80935B02E0916202F091630272
:10081000309789F1C901B80109952DC096FF06C02E
:1008200080915A028F5F80935A0225C091FF06C0C3
:1008300080915E028F5F80935E021DC090FF06C0B4
:1008400080915F028F5F80935F0215C097FF0EC09B
:100850008EE00E943702682F6F778EE00E944F0271
:10086000809159028F5F8093590205C080915D028B
:100870008F5F80935D02FF91EF91BF91AF919F9148
:100880008F917F916F915F914F913F912F911F9128
:100890000F910F900BBE0F900FBE0F901F901895E9
:1008A0001F920F920FB60F9211248F939F938091F6
:1008B00057029091580201969093580280935702E4
:1008C0009F918F910F900FBE0F901F901895FF92E0
:1008D0000F931F93CF93DF9311E010937A0487E671
:1008E00092E09093700480936F042DEE33E0309388
:1008F0007204209371049093740480937304309372
:1009000076042093750484E0809377041092780431
:100910001092790483E30E946A000E94A409803443
:1009200059F48BE00E94FE07803431F481E060E0EE
:100930000E948D07803419F0109266022AC08CE064
:1009400063E040E020E00E947A028DE068E043E04E
:1009500020E00E947A028DE064E042E020E00E9404
:100960007A028CED9CEA0E94B3088FEA9EEB0E940B
:10097000BF0880E00E94DD068AEE62EE0E942F082A
:1009800081E00E94E4068EEC95E00E94A60110939F
:10099000660286E10E941207803429F083E191E02B
:1009A00067E20E9479007894809162008D7F809345
:1009B00062008AE391E065E10E9479008CE10E9487
:1009C0003702809365028DE10E94370280936402B2
:1009D00007E612E0CDEED3E084E0F82E80917804B3
:1009E000882309F4B8C0809162008E7F80936200F2
:1009F0002091750430917604809171049091720475
:100A00002817390749F480916F04909170049093EE
:100A100076048093750406C02E573F4F30937604BA
:100A200020937504F894809177048F5F8093770406
:100A3000809178048150809378047894809161004B
:100A4000846080936100809162008B7F809362005C
:100A5000E0917504F091760483850E948200E09114
:100A60007504F091760482850E948200E0917504FD
:100A7000F091760480810E948200E0917504F091EB
:100A8000760485810E948200E0917504F0917604DD
:100A900084810E948200E0917504F091760484893B
:100AA0000E948200E0917504F091760483810E9497
:100AB0008200E0917504F091760487810E948200A3
:100AC000E0917504F091760486810E948200E091A5
:100AD0007504F091760481850E948200E09175048E
:100AE000F091760480850E948200E0917504F09177
:100AF000760485850E948200E0917504F091760469
:100B000086850E948200E0917504F09176048785C5
:100B10000E948200E0917504F091760481890E9420
:100B20008200E0917504F091760480890E94820031
:100B3000E0917504F091760483890E948200E0912F
:100B40007504F091760482890E948200809162008F
:100B500081608093620080917904882309F43ECFFC
:100B6000F8941093700400936F04D0937204C093B0
:100B700071041093740400937304D0937604C093AB
:100B80007504F092770410927804109279048FE43F
:100B900091E066E10E947900789420CF80917A04F8
:100BA0008823C9F180917704882321F481E0809320
:100BB0007904089580917304909174040E949902BD
:100BC000E0917304F0917404EF57FF4F8081E15876
:100BD000F040882301F18091710490917204E8172C
:100BE000F90749F480916F04909170049093740414
:100BF0008093730406C0EE57FF4FF0937404E093A4
:100C000073048091770481508093770480917804F5
:100C10008F5F809378040895C498C59880E18A9581
:100C2000F1F7C49A08958EE268E043E00E946702FB
:100C3000089581E06FE140E00E94670208950F93FC
:100C40001F93CF93DF93082FEB01142F85508B3721
:100C500010F082E431C081E06FE140E00E94670261
:100C6000893111F084E428C00E949201C59AC59888
:100C7000CE01602F0E94EF020E948F018823E1F3D2
:100C800082E060EE45E00E9467028823A1F0833095
:100C900011F08EE401C08DE4112371F081E06FE169
:100CA00040E00E9467028931C9F711500E94920109
:100CB000C59AC598E1CF80E4DF91CF911F910F9144
:100CC00008951F93CF93DF93182FEB0187FF02C086
:100CD00082E410C081E06FE140E00E946702893049
:100CE00011F084E407C0C59AC598CE01612F0E9417
:100CF000EF0280E4DF91CF911F910895B59902C072
:100D000080E40895C59880EE96E00197F1F781E0C0
:100D10006FE140E00E946702883091F383E4089518
:100D200083E067E040E00E946702089581E160E2AD
:100D300045E00E946702882311F08BE408958AE45D
:100D4000089581E160E144E00E946702089581E135
:100D50006FE040E00E9467020895CF93DF93EC01BB
:100D600081E06FE140E00E946702863021F081302F
:100D700011F084E407C086E06FE140E00E94670262
:100D8000888380E4DF91CF91089589E06FE040E0AF
:100D90000E946702089588E060E645E00E946702CD
:100DA000089585E06FE040E00E946702089588E0C2
:100DB0006FE140E00E94670208958EE268E043E040
:100DC00020E00E947A020895882329F084E060E2FE
:100DD00045E021E004C084E060E245E020E00E94BC
:100DE0007A020895C59880E18A95F1F782E06FE173
:100DF00040E023E00E947A0282E08A95F1F70895AC
:100E0000B59B02C080E408950E94F20681E06FE184
:100E100040E00E946702883011F083E40895C59A8B
:100E200080E408950F931F93082F883051F0863087
:100E300041F0893031F0863121F0893111F082E4BE
:100E40004BC0B59B02C084E447C081E06FE140E045
:100E50000E946702182F8150823008F43AC0113185
:100E6000C1F11231B1F10117B1F1083019F40E944A
:100E7000F20626C0093139F4163191F482E06FE1AF
:100E800040E029E008C0063159F4193149F482E004
:100E90006FE140E026E00E947A0282E08A95F1F755
:100EA00082E06FE140E0202F0E947A02183029F49E
:100EB00088E691E00197F1F703C082E08A95F1F7A7
:100EC00081E06FE140E00E946702801721F083E437
:100ED00003C085E401C080E41F910F91089581E073
:100EE0006FE140E00E9467028850823010F084E495
:100EF000089588E160E847E021E00E947A0282E4F8
:100F00008A95F1F788E160E847E00E94670288234C
:100F100011F480E4089583E408950F931F93082F3C
:100F2000162F663010F082E41BC083E067E040E0DB
:100F30000E946702811799F0002329F483E068E09A
:100F400043E021E004C083E068E043E020E00E9449
:100F50007A0283E067E040E0212F0E947A0280E479
:100F60001F910F9108951F93162F603110F082E4A6
:100F700018C0B59B02C084E414C0882329F081E125
:100F800060E144E021E004C081E160E144E020E070
:100F90000E947A0281E16FE040E0212F0E947A02F4
:100FA00080E41F9108951F93282F162F833098F403
:100FB000603188F4B59B02C084E40EC088E060E62E
:100FC00045E00E947A0289E06FE040E0212F0E9414
:100FD0007A0280E401C082E41F910895282F8031B5
:100FE00010F082E40895B59B02C084E4089585E082
:100FF0006FE040E00E947A0280E408951F93182F6A
:101000008B50803110F082E428C0B59B02C084E48C
:1010100024C088E06FE140E00E9467028117E1F0A0
:1010200088E06FE140E0212F0E947A0281E06FE1C9
:1010300040E00E946702863011F0893021F48CE292
:1010400091E00197F1F788E06FE140E00E946702CC
:10105000811711F083E401C080E41F9108950F937C
:101060001F93082F162FB59B02C084E42AC08CE280
:1010700060EF44E020E00E947A02212F30E02873E4
:10108000307083E0359527958A95E1F78CE26EE024
:1010900041E00E947A02212F229526952695237001
:1010A0008FE26FE040E00E947A028DE2602F0E94A2
:1010B0004F0217708EE267E040E0212F0E947A0213
:1010C00080E41F910F910895AF92BF92CF92DF926B
:1010D000EF92FF920F931F938C017C010894E11C07
:1010E000F11C8BE2F80160810E944F0267010894B5
:1010F000C11CD11C8AE2F80161810E944F02560195
:101100000894A11CB11C89E2F70161810E944F0281
:1011100075010894E11CF11C88E2F60161810E94CE
:101120004F0287010F5F1F4F87E2F50161810E9427
:101130004F0286E2F70161810E944F0285E2F801C9
:1011400061810E944F0284E20F5F1F4FF8016181AD
:101150000E944F021F910F91FF90EF90DF90CF9070
:10116000BF90AF9008951F93682F192F80E20E94BF
:101170004F0281E2612F0E944F021F9108951F9339
:10118000682F192F82E20E944F0283E2612F0E9492
:101190004F021F910895EF92FF920F931F937C01CE
:1011A0008BE20E943702F70181938F018AE20E944D
:1011B0003702F701818378010894E11CF11C89E270
:1011C0000E943702F801818387010F5F1F4F88E279
:1011D0000E943702F701818378010894E11CF11C19
:1011E00087E20E943702F801818387010F5F1F4F5A
:1011F00086E20E943702F701818385E20E9437026E
:10120000F801818384E20E9437020F5F1F4FF801CB
:1012100081831F910F91FF90EF9008951F9381E2BA
:101220000E943702182F81E20E943702512F40E0BE
:10123000282F30E0242B352BC9011F9108951F93CF
:1012400083E20E943702182F82E20E943702512F58
:1012500040E0282F30E0242B352BC9011F91089541
:1012600081E06FE140E00E946702893011F084E480
:10127000089586E00E9412078034A9F488E060E8AF
:1012800047E021E00E947A0288E191E00197F1F7BE
:1012900081E00E94370287FF06C086FD02C088E415
:1012A000089587E4089583E40895CF93DF93EC01D4
:1012B00081E06FE140E00E946702863021F08130DA
:1012C00011F084E40DC087E060E00E944F0288E1E5
:1012D00091E00197F1F787E00E943702888380E46C
:1012E000DF91CF91089581E06FE140E00E946702B5
:1012F000893011F084E408958BE160E847E021E053
:101300000E947A028AE160E847E021E00E947A02C6
:101310000E9428028CE291E00197F1F70E942502D9
:10132000882381F08BE160E847E00E946702882310
:1013300049F48AE160E847E00E946702882311F4DB
:1013400080E4089583E408950F931F930CEF13E056
:10135000C8010197F1F70E9442010E940C0682E049
:101360006FE140E023E00E947A02C8010197F1F7A3
:1013700081E06FE140E00E946702883011F083E471
:1013800011C08DE10E943702823059F48EE10E9433
:1013900037028F3131F48EE06FEF0E944F0280E40C
:1013A00001C081E41F910F9108958AB31ABA8BB3DB
:1013B0008FEF8BBB97B317BA98B388BB94B314BAAB
:1013C00095B385BB91B311BA92B382BB92B112B8F7
:1013D00093B183B9E1E6F0E090811082E2E6F0E0BB
:1013E00090818083E4E6F0E08081807E8083E5E682
:1013F000F0E080818F61808308952FB7F8941BBE41
:0E140000FC01608340832FBF0895F894FFCF56
:10140E00670130313233343536373839414243444F
:10141E004546004120666174616C206572726F7280
:10142E002E2053797374656D206D7573742062650B
:10143E002072657365742E0D0A000D3C2D2D2D54F2
:10144E00797065204D6573736167653A0D0A0052B8
:10145E005820427566666572204F766572666C6FAF
:06146E0077210D0A0000C9
:00000001FF
